:100000000C949E010C94CF010C94CF010C94CF0161
:100010000C94CF010C94CF010C94CF010C94CF0120
:100020000C94CF010C94CF010C94CF010C94CF0110
:100030000C94CF010C94CD200C94CF010C94CF01E3
:100040000C94CF010C94D40D0C94CF010C94CF01DF
:100050000C94ED0F0C94CF010C94CF010C946A1604
:100060000C94CF010C94E1210C94D1220C94CF017B
:100070000C94CF010C94CF010C94CF010C94CF01C0
:100080000C94020E0C94CF010C94CF010C94CF0170
:100090000C9415220C9410230C94CF010C947B1417
:1000A0000C94CF010C94CF010C94300E0C94CF0122
:1000B0000C94CF010C94CF010C94CF010C945E0EE4
:1000C0000C94CF010C94CF010C94CF010C944922D5
:1000D0000C944F230C94CF010C947D220C948E230E
:1000E0000C94CF01C315C615B915BD15FD15CA155C
:1000F000CE15D415D815DC15E215E615EA15FD1553
:10010000F015F415F815BB17C017C517CF17481809
:10011000D917E117E917F317FD1707181618201854
:1001200048182A1834183E180C94EA150C94F31742
:100130000C9448180C94D0120C94D4150C94D81527
:100140000C94FD150C9455240C94E1170C94842107
:100150000C94CE150C942A180C947C120C94201834
:100160000C94B9150C94E9170C94C5170C94C203A0
:100170000C9474120C94BB170C94E2150C94DC15BF
:100180000C94F8150C94CF170C94CA150C942D21CF
:100190000C94B0220C943D210C94C3150C94C41201
:1001A0000C943E180C94D1010C9407180C94E6158D
:1001B0000C94F4150C9479210C9459210C94C017CB
:1001C0000C949F120C948C130C94C6150C94341838
:1001D0000C94F0150C94A0120C94D9170C94FD17E4
:1001E0000C9490120C9416180C94BD150C940013DA
:1001F0000C9492180000090A02080B0C0D07060364
:1002000004010000000000000000000000000000E9
:1002100000000000000000000000000000000000DE
:1002200011100F000000000000000000000000009E
:100230000000000000000000000001021020200863
:100240000810204010204080020102010804020131
:1002500001020408102040808040201008040201A0
:1002600080040201804020100804020108040201F9
:100270000102040810204080010204081020408080
:1002800005050505070508080808020202020A0A12
:100290000808040404040101010101010101030330
:1002A000030303030303040707070C0C0C0C0C0CDB
:1002B0000C0C0202020206060606060606060B0BD8
:1002C0000B0B0B0B0B0B00002200250028002B0052
:1002D0002E003100340002010000050108010B016D
:1002E00000002100240027002A002D0030003300E8
:1002F00001010000040107010A01024E414E494E6E
:10030000495459494E46CDCCCC3D0AD7233C17B76A
:10031000D13877CC2B329595E6241FB14F0A0000D7
:1003200020410000C84200401C4620BCBE4CCA1BF5
:100330000E5AAEC59D74C2038C13552411241FBEE2
:10034000CFEFD1E2DEBFCDBF00E00CBF12E0A0E0F6
:10035000B2E0EEE0F8E500E00BBF02C007900D92BE
:10036000A23EB107D9F727E0A2EEB2E001C01D928C
:10037000AE36B207E1F711E0CEE9D1E000E006C009
:1003800021970109802FFE010E94DD29CB39D10779
:1003900080E00807A9F70E94E01A0C94052C0C9441
:1003A000000060E088E00E943A1680E180938100BE
:1003B000089540E050E061E08AE293E00E949C10E2
:1003C00061E070E080E090E00E94E51640E050E0DF
:1003D00062E08AE293E00E949C1061E070E080E0BD
:1003E00090E00E94E51640E050E063E08AE293E08E
:1003F0000E949C1061E070E080E090E00C94E516B3
:1004000024E233E046E253E068E273E08AE293E0FC
:100410000C94AA1161E084E00E94FE1561E087E07F
:100420000E94FE1561E085E00E94FE1561E086E015
:100430000E94FE1560E089E30E94FE1560E087E3FC
:100440000E94FE1560E086E30E94FE1560E088E3EE
:100450000E94FE1560E084E00E943A1660E087E0AA
:100460000E943A1660E070E085E00E94921760E01A
:1004700070E086E00E94921769E070E08BE293E002
:100480000E94560F64EB70E08BE293E00E94910FA4
:1004900068E372E086E295E00C94EC1860E38AE28F
:1004A00093E00E941F106AE070E080E090E00E94FC
:1004B000E5168AE293E00E94FA106AE070E080E0BC
:1004C00090E00E94E5162DE133E04EE153E06FE14C
:1004D00073E08AE293E00E941E1269E472E086E211
:1004E00095E00E94CF184AE050E060911F0386E239
:1004F00095E00E94C91963E572E086E295E00E94EA
:10050000CF184AE050E060911E0386E295E00E9419
:10051000C91963E572E086E295E00E94CF184AE0CF
:1005200050E060911D0386E295E00E94D01965E0DD
:1005300070E080E090E00E94E5168AE293E00E947D
:10054000431180931C0365E572E086E295E00E940A
:10055000CF184AE050E060911C0386E295E00E94CB
:10056000D01965E070E080E090E00E94E5168AE234
:1005700093E00E949B1190931B0380931A0363E600
:1005800072E086E295E00E94CF1860911A037091A4
:100590001B034AE050E086E295E00E94A51965E061
:1005A00070E080E090E00E94E5168AE293E00E940D
:1005B000A011909319038093180361E772E086E21B
:1005C00095E00E94CF1860911803709119034AE0DA
:1005D00050E086E295E00E94A51965E070E080E0B9
:1005E00090E00E94E5168AE293E00E94A5119093A4
:1005F0001703809316036FE772E086E295E00E948E
:10060000CF1860911603709117034AE050E086E21C
:1006100095E00E94A51965E070E080E090E00E94FE
:10062000E51620912A0230912B0240912C02509124
:100630002D0260912E0270912F028AE293E00E94B7
:100640005C106FE070E080E090E00E94E516209181
:100650002402309125024091260250912702609198
:100660002802709129028AE293E00E947C106FE0D8
:1006700070E080E090E00E94E5166DE872E086E2AE
:1006800095E00E94EC1868EE73E080E090E00C9436
:10069000E5162F923F924F925F926F927F928F92C8
:1006A0009F92AF92BF92CF92DF92EF92FF920F9301
:1006B0001F93CF93DF9300D0CDB7DEB75C014B0122
:1006C0002901FB010481158101501109612C712C54
:1006D000CC24CA94DC2C212C312CE12CF12C7B82F3
:1006E0006A82061517057CF14E145F042CF16A81AD
:1006F0007B81C40149830E94851C2A813B812F5F35
:100700003F4F4981841741F08A819B81801791076F
:1007100019F0DB82CA820CC09FEFE91AF90A1601B0
:10072000EFEF2E1A3E0A6016710611F43B832A83FE
:100730003901CA80DB80D3CF9601A101B401C50184
:100740000E94D61C08C04E145F04B4F36BEA72E03A
:10075000C5010E94B31BC5010F900F900F90DF9150
:10076000CF911F910F91FF90EF90DF90CF90BF90AE
:10077000AF909F908F907F906F905F904F903F9041
:100780002F9008958BE293E00C948C0E0E944E0201
:100790000E940A0261E088E00E94FE1560E088E0A5
:1007A0000E943A1681ED91E09093C4038093C303B5
:1007B00081E080936F0080E18093810040E052EC03
:1007C00061E070E086E295E00E94CD2386E295E04C
:1007D0000E94792140E855E260E070E084E095E015
:1007E0000E94CD2384E095E00E94792122E330E04D
:1007F00040E050E060EA7FE085E30E94271D66E963
:1008000070E080E090E00E94E51622E330E040E0F6
:1008100050E060EA7FE085E30E94271D6CE271E012
:1008200080E090E00E94E51624E630E040E050E0F1
:1008300060EA7FE085E30E94271D6CE271E080E0C2
:1008400090E00E94E51624E630E040E050E060EAE7
:100850007FE085E30E94271D0E94D9016BE972E0C9
:1008600086E295E00C94EC18609103037091040308
:1008700080910503909106030E9421284AE050E0F0
:1008800086E295E00E949E196CEA72E086E295E0AD
:100890000E94CF184AE050E06091E20286E295E0C3
:1008A0000E94C9196CEA72E086E295E00E94CF18B6
:1008B0006091F9027091FA024AE050E086E295E018
:1008C0000E949E196CEA72E086E295E00E94CF18C1
:1008D00060912803709129034AE050E086E295E098
:1008E0000E949E196CEA72E086E295E00E94CF18A1
:1008F00060912603709127034AE050E086E295E07C
:100900000E949E196CEA72E086E295E00E94CF1880
:1009100060912403709125034AE050E086E295E05F
:100920000E949E196CEA72E086E295E00E94CF1860
:100930004091F5025091F6026091F7027091F80231
:1009400022E030E086E295E00E94CC1A6CEA72E088
:1009500086E295E00E94CF184091F1025091F20298
:100960006091F3027091F40222E030E086E295E0BB
:100970000E94CC1A6CEA72E086E295E00E94CF18E1
:100980004091200350912103609122037091230331
:1009900022E030E086E295E00E94CE1A86E295E001
:1009A0000E94792180912803909129039093150347
:1009B000809314038091260390912703909313034F
:1009C0008093120380912403909125039093110347
:1009D0008093100308954F925F926F927F928F924F
:1009E0009F92AF92BF92CF92DF92EF92FF920F93BE
:1009F0001F93CF93DF93CDB7DEB7C556D1090FB69E
:100A0000F894DEBF0FBECDBF88E30E946D17853F0F
:100A100091402CF08091E202882309F4DBC788E33F
:100A20000E946D17843F91402CF48091E202813046
:100A300009F4D8C70E94B4160091E3021091E402B1
:100A40002091E5023091E602AB01BC01401B510B45
:100A5000620B730B8091040290910502092E000C29
:100A6000AA0BBB0B84179507A607B70770F48AE299
:100A700093E00E94FA100E94B4166093E302709310
:100A8000E4028093E5029093E60284E095E00E9400
:100A90002D211816190614F54AE064E075E0CE0120
:100AA0000B960E941D1B20E030E04AE050E0BE01A2
:100AB0006F5F7F4FCE010B960E94871CCE0101967F
:100AC0000E94FF296093030370930403809305033E
:100AD00090930603CE010B960E94451B0E94B4160C
:100AE00000910C0310910D0320910E0330910F0320
:100AF000AB01BC01401B510B620B730B80912202B6
:100B000090912302092E000CAA0BBB0B84179507AA
:100B1000A607B70708F0C4C086E30E946D17BC01A2
:100B2000990F880B990B0E9459282091120230913D
:100B3000130240911402509115020E940E29209137
:100B40000A0230910B0240910C0250910D020E945A
:100B5000AF276093F1027093F2028093F3029093B7
:100B6000F40287E30E946D17BC01990F880B990B63
:100B70000E945928209116023091170240911802C4
:100B8000509119020E940E2920910E0230910F02FD
:100B900040911002509111020E94AF276093F5021C
:100BA0007093F6028093F7029093F8028AE293E042
:100BB0000E94891120E030E040E450E40E943D278B
:100BC0006B017C01609320037093210380932203C7
:100BD0009093230320E030E040EA51E40E94AA27EA
:100BE00087FF0EC020E030E040E850E4C701B601C6
:100BF0000E940929181624F481E080930B0302C097
:100C000010920B03C090F502D090F602E090F7022C
:100C1000F090F80220E030E048E251E4C701B6016C
:100C20000E94AA2787FF0EC020E030E040EA50E48F
:100C3000C701B6010E940929181624F481E08093A7
:100C4000F00202C01092F002C090F102D090F202C5
:100C5000E090F302F090F40220E030E040EB50E44A
:100C6000C701B6010E94AA2787FF0EC020E030E02E
:100C700040E450E4C701B6010E940929181624F483
:100C800081E08093EF0202C01092EF020E94B4163E
:100C900060930C0370930D0380930E0390930F03E6
:100CA0000E94B4160091FF021091000320910103ED
:100CB00030910203AB01BC01401B510B620B730B63
:100CC00080911E0290911F02092E000CAA0BBB0BF3
:100CD00084179507A607B707E8F489E30E946D1704
:100CE000853F91403CF081E090E09093FA02809340
:100CF000F90204C01092FA021092F9020E94340420
:100D00000E94B4166093FF02709300038093010366
:100D1000909302030E94B4160091FB021091FC0212
:100D20002091FD023091FE02AB01BC01401B510B32
:100D3000620B730B80911C0290911D02092E000C16
:100D4000AA0BBB0B84179507A607B70760F40E9490
:100D500000020E94B4166093FB027093FC02809321
:100D6000FD029093FE0280910B038823B9F10E944B
:100D7000B4162091200230912102C0900703D09038
:100D80000803E0900903F0900A03DC01CB018C1901
:100D90009D09AE09BF096901032E000CEE08FF088A
:100DA000C816D906EA06FB06C8F437FF02C02F5F53
:100DB0003F4F35952795032E000C440B550B60EAE9
:100DC0007FE085E30E94271D0E94B416609307030D
:100DD000709308038093090390930A038091F002B3
:100DE0008823B9F10E94B4162091080230910902BB
:100DF000C090EB02D090EC02E090ED02F090EE0299
:100E0000DC01CB018C199D09AE09BF096901032ED4
:100E1000000CEE08FF08C816D906EA06FB06C8F45F
:100E200037FF02C02F5F3F4F35952795032E000CEB
:100E3000440B550B64E971E185E30E94271D0E9474
:100E4000B4166093EB027093EC028093ED029093E2
:100E5000EE028091EF028823B9F10E94B41620912E
:100E6000060230910702C090E702D090E802E090BD
:100E7000E902F090EA02DC01CB018C199D09AE0970
:100E8000BF096901032E000CEE08FF08C816D90639
:100E9000EA06FB06C8F437FF02C02F5F3F4F3595C7
:100EA0002795032E000C440B550B68E873E185E38E
:100EB0000E94271D0E94B4166093E7027093E80217
:100EC0008093E9029093EA0286E295E00E942D2148
:100ED000181619060CF089C54AE066E275E0CE01E5
:100EE000815A9F4F0E941D1B0E94B4166093E3021B
:100EF0007093E4028093E5029093E60260E070E074
:100F0000CE01815A9F4F0E94621CFC018081813476
:100F100009F063C061E2CE01815A9F4F0E94D21C4A
:100F20009C0142E050E0BE01615A7F4FCE010B961A
:100F30000E94D61CA5960EAD1FADA59761E2CE010D
:100F4000815A9F4F0E94D21CAC014F5F5F4F9801A6
:100F5000BE01615A7F4FCE0101960E94D61CCE0180
:100F60000B960E941C1D6B017C01CE0101960E9414
:100F70001C1D4B015C01442755274C195D0963E09A
:100F80008AE293E00E94E11061E070E080E090E08E
:100F90000E94E516A60161E08AE293E00E94E1105A
:100FA00061E070E080E090E00E94E516A40162E05C
:100FB0008AE293E00E94E11061E070E080E090E05E
:100FC0000E94E51686E295E00E947921CE01019605
:100FD0000E94451BCE010B96F5C460E070E0CE0187
:100FE000815A9F4F0E94621CFC0180818335C9F4A5
:100FF0006AE0CE01815A9F4F0E94D21C9C0141E0C1
:1010000050E0BE01615A7F4FCE0101960E94D61C6E
:10101000CE0101960E941C1D8BE293E00E94910F6D
:1010200018C260E070E0CE01815A9F4F0E94621C9E
:10103000FC018081803739F460912E0270912F027B
:101040006253710911C060E070E0CE01815A9F4F78
:101050000E94621CFC0180818035E9F460912E02BF
:1010600070912F026E5C7F4F70932F0260932E025F
:1010700020912A0230912B0240912C0250912D0296
:101080008AE293E00E945C106AE070E080E090E009
:101090000E94E51699C460E070E0CE01815A9F4F2E
:1010A0000E94621CFC018081893639F440912C0237
:1010B00050912D024253510911C060E070E0CE0101
:1010C000815A9F4F0E94621CFC018081893479F40F
:1010D00040912C0250912D024E5C5F4F50932D0297
:1010E00040932C0220912A0230912B022BC060E009
:1010F00070E0CE01815A9F4F0E94621CFC018081EA
:10110000843639F420912A0230912B02225331097E
:1011100011C060E070E0CE01815A9F4F0E94621CB6
:10112000FC018081843499F420912A0230912B02B1
:101130002E5C3F4F30932B0220932A0240912C02C9
:1011400050912D0260912E0270912F0299CF60E094
:1011500070E0CE01815A9F4F0E94621CFC01808189
:10116000823639F460912802709129026253710924
:1011700011C060E070E0CE01815A9F4F0E94621C56
:10118000FC018081823499F46091280270912902D7
:101190006E5C7F4F70932902609328022091240295
:1011A0003091250240912602509127025BC060E0F9
:1011B00070E0CE01815A9F4F0E94621CFC01808129
:1011C0008E3639F44091260250912702425351093C
:1011D00011C060E070E0CE01815A9F4F0E94621CF6
:1011E000FC0180818E3479F44091260250912702CF
:1011F0004E5C5F4F509327024093260220912402B9
:10120000309125022BC060E070E0CE01815A9F4FE3
:101210000E94621CFC0180818D3639F420912402E9
:10122000309125022253310911C060E070E0CE01F7
:10123000815A9F4F0E94621CFC0180818D34D9F439
:1012400020912402309125022E5C3F4F30932502DD
:101250002093240240912602509127026091280297
:10126000709129028AE293E00E947C106FE070E0A6
:1012700080E090E00DCF60E070E0CE01815A9F4F9A
:101280000E94621CFC018081833249F441E050E0FD
:101290006EEA72E084E095E00E94921895C360E0E7
:1012A00070E0CE01815A9F4F0E94621CFC01808138
:1012B000883719F40E94D90187C360E070E0CE013D
:1012C000815A9F4F0E94621CFC0180818B3409F07F
:1012D000C3C06AE0CE01815A9F4F0E94D21C9C017C
:1012E00042E050E0BE01615A7F4FCE0101960E945C
:1012F000D61CCE0101960E941C1D6B017C018B0146
:101300006BEA72E086E295E00E94EC186BEA72E00C
:1013100086E295E00E94EC184AE050E0B60186E2D1
:1013200095E00E94A5196BEA72E086E295E00E94C2
:10133000EC186BEA72E086E295E00E94EC181C144F
:101340001D040CF086C080911A0290911B028C152E
:101350009D0534F497FD02C08C0102C000E010E04E
:1013600061E088E00E943A1628EE33E0029FC00157
:10137000039F900D129F900D112420E12093810076
:1013800010928000092E000CAA0BBB0B03E0880F03
:10139000991FAA1FBB1F0A95D1F70097F1E0AF076D
:1013A000B10520F421E02093C50342C0009728E056
:1013B000A207B10558F422E02093C50313E0B695C7
:1013C000A795979587951A95D1F732C0009740E475
:1013D000A407B10558F423E02093C503F6E0B695C1
:1013E000A79597958795FA95D1F722C00097A10503
:1013F00061E0B60740F424E02093C503892F9A2FBB
:10140000AB2FBB2715C00097A105E4E0BE0758F439
:1014100025E02093C5037AE0B695A7959795879523
:101420007A95D1F705C085E08093C5038FEF9FEFD4
:101430009093C7038093C6038091C6039091C7031E
:1014400090938700809386008091C503806180938C
:101450008100CE010196B6C2BE01615A7F4FCE0116
:1014600001960E94E01B20E030E04CE2BE016F5F7D
:101470007F4FCE01885A9F4F0E944903CE010196AB
:101480000E94451BBE01615A7F4FCE0101960E940A
:10149000E01B21E030E04CE2BE016F5F7F4FCE01E8
:1014A0008F5A9F4F0E944903CE0101960E94451B0F
:1014B000BE01615A7F4FCE0101960E94E01B22E0DF
:1014C00030E04CE2BE016F5F7F4FCE01865B9F4FE5
:1014D0000E944903CE0101960E94451BBE01615A3C
:1014E0007F4FCE0101960E94E01B23E030E04CE2EA
:1014F000BE016F5F7F4FCE018D5B9F4F0E944903FE
:10150000CE0101960E94451BBE01615A7F4FCE015C
:1015100001960E94E01B24E030E04CE2BE016F5FC8
:101520007F4FCE01CC960E944903CE0101960E94C6
:10153000451BBE01615A7F4FCE0101960E94E01B00
:1015400025E030E04CE2BE016F5F7F4FCE01C596D3
:101550000E944903CE0101960E94451BBE01615ABB
:101560007F4FCE0101960E94E01B26E030E04CE266
:10157000BE016F5F7F4FCE018E960E944903CE0160
:1015800001960E94451BBE01615A7F4FCE01019614
:101590000E94E01B27E030E04CE2BE016F5F7F4F0E
:1015A000CE0187960E944903CE0101960E94451BF9
:1015B000BE01615A7F4FCE0101960E94E01B28E0D8
:1015C00030E04CE2BE016F5F7F4FCE0180960E94FB
:1015D0004903CE0101960E94451BBE01615A7F4F0F
:1015E000CE0101960E94E01B29E030E04CE2BE01F2
:1015F0006F5F7F4FCE0149960E944903CE0101964D
:101600000E94451BBE01615A7F4FCE0101960E9488
:10161000E01B2AE030E04CE2BE016F5F7F4FCE015D
:1016200042960E944903CE0101960E94451BBE01CD
:10163000615A7F4FCE0101960E94E01B2BE030E003
:101640004CE2BE016F5F7F4FCE010B960E944903B3
:10165000CE0101960E94451BCE01885A9F4F0E94E1
:101660001C1D2B013C01CE018F5A9F4F0E941C1D57
:101670006B017C01CE01865B9F4F0E941C1D4B01BC
:101680005C0160EB72E0CE018D5B9F4F0E94431CBA
:10169000882329F060910202709103020DC062EB71
:1016A00072E0CE018D5B9F4F0E94431C882371F036
:1016B00060910002709101028BE293E00E94910F11
:1016C0006CE271E080E090E00E94E516CE01CC96DD
:1016D0000E941C1D8B018091E20281112AC0C2016F
:1016E0008536910514F084E690E028E631E028196B
:1016F00039092936F1E03F0714F028E631E0A60168
:101700004536510514F044E650E037FF02C020E0B2
:1017100030E04C396FEF560714F44CE95FEFBC0131
:1017200097FF02C060E070E08AE293E00E94C2107E
:1017300004C08AE293E00E94FA1062EB72E0CE01EC
:1017400049960E94431C882369F040E050E061E024
:101750008AE293E00E949C1061E070E080E090E0FB
:101760000E94E51662EB72E0CE0142960E94431C95
:10177000882369F040E050E062E08AE293E00E9452
:101780009C1061E070E080E090E00E94E51662EB62
:1017900072E0CE010B960E94431C882369F040E062
:1017A00050E063E08AE293E00E949C1061E070E008
:1017B00080E090E00E94E51662EB72E0CE01C596F3
:1017C0000E94431C882311F061E009C060EB72E0C5
:1017D000CE01C5960E94431C882321F060E084E07E
:1017E0000E943A1664EB72E0CE01C5960E94431C3B
:1017F000811107C0CE018E960E941C1D85E00E94BB
:10180000921762EB72E0CE0187960E94431C8823F8
:1018100011F061E009C060EB72E0CE0187960E9492
:10182000431C882321F060E087E00E943A1664EBB5
:1018300072E0CE0187960E94431C811107C0CE0141
:1018400080960E941C1D86E00E94921710161106B9
:101850000CF086C080911A0290911B0280179107AC
:1018600034F497FD02C08C0102C000E010E061E09A
:1018700088E00E943A1628EE33E0029FC001039FE1
:10188000900D129F900D112420E120938100109261
:101890008000092E000CAA0BBB0B63E0880F991F78
:1018A000AA1FBB1F6A95D1F70097E1E0AE07B1050B
:1018B00020F421E02093C50342C00097F8E0AF0771
:1018C000B10558F422E02093C50353E0B695A795DF
:1018D000979587955A95D1F732C0009720E4A207D3
:1018E000B10558F423E02093C50346E0B695A795CB
:1018F000979587954A95D1F722C00097A10541E0B9
:10190000B40740F424E02093C503892F9A2FAB2F0E
:10191000BB2715C00097A10564E0B60758F425E081
:101920002093C5032AE0B695A795979587952A95A4
:10193000D1F705C085E08093C5038FEF9FEF9093AB
:10194000C7038093C6038091C6039091C703909309
:101950008700809386008091C50380618093810019
:10196000CE010B960E94451BCE0142960E94451B5C
:10197000CE0149960E94451BCE0180960E94451BD0
:10198000CE0187960E94451BCE018E960E94451B74
:10199000CE01C5960E94451BCE01CC960E94451BE8
:1019A000CE018D5B9F4F0E94451BCE01865B9F4FF2
:1019B0000E94451BCE018F5A9F4F0E94451BCE01AE
:1019C000885A9F4F0E94451BCE01815A9F4F0E940B
:1019D000451B0BC08AE293E00E94FA1081E08093DD
:1019E000E20228C81092E20225C8CB59DF4F0FB699
:1019F000F894DEBF0FBECDBFDF91CF911F910F9145
:101A0000FF90EF90DF90CF90BF90AF909F908F901E
:101A10007F906F905F904F900895CF92DF92EF92FA
:101A2000FF920F931F93CF93DF936C018B017A0189
:101A3000EC01C15DDC4F888187FF04C0FB0111828E
:101A4000108224C08CE08C9D90018D9D300D11245E
:101A50008881A901480F511D87FD5A9580912E0359
:101A600090E04817590794F48881A901480F511D47
:101A700087FD5A95CA01FA01EE0FFF1F8E0F9F1FB7
:101A8000FC01ED5CFC4F808186FD19C088818F5F71
:101A900088838CE08C9D90018D9D300D1124888170
:101AA000A901480F511D87FD5A9580912E0390E0A2
:101AB00048175907BCF488818C3044F113C08881E1
:101AC000280F311D87FD3A95F901EE0FFF1F2E0FEC
:101AD0003F1FF901ED5CFC4F808160E08F730E9435
:101AE0003A16D4CFF80180819181049680349C49C4
:101AF00018F480E49CE904C0F80180819181049687
:101B0000F701918380838FEF888345C0F80140817E
:101B100051818881B901680F711D87FD7A95CB01CC
:101B2000FB01EE0FFF1F8E0F9F1FFC01ED5CFC4FB2
:101B300081819281840F951FF70191838083888131
:101B4000A901480F511D87FD5A95CA01FA01EE0FF0
:101B5000FF1F8E0F9F1FFC01ED5CFC4F808186FFF5
:101B60001AC08881280F311D87FD3A95F901EE0FC3
:101B7000FF1F2E0F3F1FF901ED5CFC4F808161E0DC
:101B80008F73DF91CF911F910F91FF90EF90DF90B6
:101B9000CF900C943A16DF91CF911F910F91FF9047
:101BA000EF90DF90CF9008951F920F920FB60F9293
:101BB00011240BB60F922F933F934F935F936F9324
:101BC0007F938F939F93AF93BF93EF93FF9348E8D7
:101BD00050E064E870E081E090E00E940D0DFF911C
:101BE000EF91BF91AF919F918F917F916F915F9195
:101BF0004F913F912F910F900BBE0F900FBE0F9002
:101C00001F9018951F920F920FB60F9211240BB6CA
:101C10000F922F933F934F935F936F937F938F9385
:101C20009F93AF93BF93EF93FF9348E950E064E92C
:101C300070E082E090E00E940D0DFF91EF91BF9166
:101C4000AF919F918F917F916F915F914F913F9154
:101C50002F910F900BBE0F900FBE0F901F901895F5
:101C60001F920F920FB60F9211240BB60F922F9363
:101C70003F934F935F936F937F938F939F93AF9314
:101C8000BF93EF93FF9348EA50E064EA70E083E08B
:101C900090E00E940D0DFF91EF91BF91AF919F9148
:101CA0008F917F916F915F914F913F912F910F9005
:101CB0000BBE0F900FBE0F901F9018951F920F92A2
:101CC0000FB60F9211240BB60F922F933F934F93A1
:101CD0005F936F937F938F939F93AF93BF93EF9394
:101CE000FF9348E251E064E271E080E090E00E94FE
:101CF0000D0DFF91EF91BF91AF919F918F917F91CA
:101D00006F915F914F913F912F910F900BBE0F906C
:101D10000FBE0F901F901895FC0190912E039033E9
:101D2000A0F481E0890F80932E039083892F90E0A7
:101D3000FC01EE0FFF1F8E0F9F1FFC01ED5CFC4F9F
:101D400088EB9BE09283818308958FEF80830895D1
:101D5000DF92EF92FF920F931F93CF93DF93EC01EB
:101D6000D62E7A0189018881803308F06AC061E04B
:101D70008D2D0E94FE158881E82FF0E09F01220F33
:101D8000331FE20FF31FED5CFC4F9D2D9F732081ED
:101D9000207CD22ED92AD08260E272E0AB014E19AB
:101DA0005F0957FF02C04D5F5F4F559547955595A9
:101DB0004795498340E659E09A01201B310B37FFD4
:101DC00002C02D5F3F4F35952795359527952A837E
:101DD0006CE00E9490299CE0899FB001112440E0B2
:101DE00050E09A01260F371FF901EE0FFF1F2E0F4B
:101DF0003F1FF901ED5CFC4F908196FD16C04F5FCF
:101E00005F4F4C30510569F7813021F51092800009
:101E100082E0809381001092850010928400B19A34
:101E200080916F00826080936F00E881F0E0CF01C5
:101E3000880F991FE80FF91FED5CFC4F80818064CB
:101E400080838881DF91CF911F910F91FF90EF9058
:101E5000DF900895823061F4109290008093910099
:101E6000109295001092940088BB80937100DDCF92
:101E7000833069F41092A00082E08093A100109258
:101E8000A5001092A40089BB80937200CECF81116F
:101E9000CCCF1092200182E0809321011092250185
:101EA000109224018ABB80937300BFCF20E639E0F3
:101EB00040E252E00C94A80EFC019081903380F532
:101EC000818128E830E0281B310987FD3395220FF6
:101ED000331F220F331F621773077CF0828128E5BE
:101EE00032E0281B310987FD3395220F331F220F63
:101EF000331F621773070CF49B014FB7F894892FB7
:101F000090E0FC01EE0FFF1F8E0F9F1FFC01ED5CA8
:101F1000FC4F22503109220F331F328321834FBFE0
:101F20000895AF92BF92CF92DF92EF92FF920F93FC
:101F30001F93CF93DF93EC01603282E078070CF0BF
:101F40003FC077FD06C0653B71052CF064EB70E087
:101F500002C060E070E0898128E830E05901A81AE9
:101F6000B10887FDB394AA0CBB1CAA0CBB1C0B2C9C
:101F7000000CCC08DD08072E000C880B990B2A8179
:101F800008E512E0021B110927FD1395000F111F30
:101F9000000F111F012E000C220B330B3F932F93C8
:101FA0001F930F9314EBE12EF12C00E010E020E0E2
:101FB00030E0A9010E9451180F900F900F900F90E0
:101FC000CE01DF91CF911F910F91FF90EF90DF90A5
:101FD000CF90BF90AF900C945C0F1F920F920FB6F2
:101FE0000F9211240BB60F922F933F934F935F9351
:101FF0006F937F938F939F93AF93BF93EF93FF93D1
:10200000E091C303F091C4031995FF91EF91BF9143
:10201000AF919F918F917F916F915F914F913F9180
:102020002F910F900BBE0F900FBE0F901F90189521
:10203000DC01ED91FC910190F081E02D199470E0AC
:1020400075956795FC01608388EC93E00C944913C7
:10205000CF92DF92EF92FF920F931F93CF93DF9374
:102060001F92CDB7DEB7790188EC93E049830E94D7
:102070006C134981642F88EC93E00E940013670180
:1020800010E0C6018E199F098017910744F4F601EC
:1020900061916F0188EC93E00E940013F2CF88EC0D
:1020A00093E00F90DF91CF911F910F91FF90EF90F0
:1020B000DF90CF900C9489130F93CF93DF9300D0D0
:1020C00000D0CDB7DEB779836A835B834C833D83D1
:1020D0002E8306E09E012F5F3F4F44EFFC0160819D
:1020E0000E94281026960FB6F894DEBF0FBECDBF13
:1020F000DF91CF910F9108950F93CF93DF9300D08D
:1021000000D0CDB7DEB779836A835B834C833D8390
:102110002E8306E09E012F5F3F4F4CEEFC01608155
:102120000E94281026960FB6F894DEBF0FBECDBFD2
:10213000DF91CF910F9108950F93CF93DF9300D04C
:102140001F921F92CDB7DEB79E012F5F3F4F75E004
:10215000F90111927A95E9F77AEA7C8375E57D8336
:1021600069835A834B8305E04FEEFC0160810E9436
:1021700028100F900F900F900F900F90DF91CF913C
:102180000F9108950F93CF93DF9300D01F921F926A
:10219000CDB7DEB769835A834B833C832D8305E03B
:1021A0009E012F5F3F4F4AEFFC0160810E94281083
:1021B0000F900F900F900F900F90DF91CF910F9194
:1021C00008950F93CF93DF9300D0CDB7DEB7698327
:1021D0005A834B8303E09E012F5F3F4F45EFFC0185
:1021E00060810E9428100F900F900F90DF91CF9187
:1021F0000F9108950F93CF93DF931F921F92CDB746
:10220000DEB72AEA298325E52A8302E09E012F5FB3
:102210003F4F4CEFFC0160810E9428100F900F90FF
:10222000DF91CF910F9108951F93CF93DF931F926A
:10223000CDB7DEB7162F88EC93E049830E946C136C
:102240004981642F88EC93E00E94001388EC93E0AE
:102250000E948913612F70E041E050E088EC93E028
:102260000E94691388EC93E00E947412892B29F074
:1022700088EC93E00E947C1201C08FEF0F90DF91F9
:10228000CF911F91089543EDFC0160810C941411CE
:102290000F931F93CF93DF9300D0CDB7DEB7162FE8
:1022A00019821A8288EC93E04B830E946C134B8155
:1022B000642F88EC93E00E94001388EC93E00E9466
:1022C0008913612F70E042E050E088EC93E00E94B7
:1022D00069138E010F5F1F4F88EC93E00E94741208
:1022E000892B41F088EC93E00E947C12F8018193E5
:1022F0008F01F2CF898190E0982F88272A81820F61
:10230000911D0F900F900F90DF91CF911F910F9122
:10231000089545EDFC0160810E944811BC01990FB0
:10232000880B990B0E94592820E030E040E251E4EC
:102330000E94AF27089542EDFC0160810C94481182
:1023400041EDFC0160810C94481140EDFC0160817D
:102350000C9448118F929F92AF92BF92CF92DF92CE
:10236000EF92FF920F931F93CF93DF9300D000D093
:10237000CDB7DEB74C016B017A018901CE01019620
:102380005C0186E0F50111928A95E9F7F40160811C
:1023900088EC93E00E946C1368ED70E088EC93E0A9
:1023A0000E94181088EC93E00E948913F401608168
:1023B00070E046E050E088EC93E00E94691388ECFE
:1023C00093E00E947412892B41F088EC93E00E9404
:1023D0007C12F50181935F01F2CF898190E0982F03
:1023E00088272A81820F911DF601918380838B813A
:1023F00090E0982F88272C81820F911DF7019183FF
:1024000080838D8190E0982F88272E81820F911DE7
:10241000F8019183808326960FB6F894DEBF0FBE35
:10242000CDBFDF91CF911F910F91FF90EF90DF9083
:10243000CF90BF90AF909F908F900895AF92BF9232
:10244000CF92DF92EF92FF920F931F93CF93DF9380
:1024500000D0CDB7DEB78C015B016A01790119822A
:102460001A821B82FC01608188EC93E00E946C134D
:102470006EEF70E088EC93E00E94181088EC93E017
:102480000E948913F8018081682F70E043E050E0DA
:1024900088EC93E00E9469138E010F5F1F4F88EC58
:1024A00093E00E947412892B41F088EC93E00E9423
:1024B0007C12F80181938F01F2CF8981F50180832D
:1024C0008A81F60180838B81F70180830F900F90C2
:1024D0000F90DF91CF911F910F91FF90EF90DF90C0
:1024E000CF90BF90AF9008958091FC0390E0209131
:1024F000FD03821B910908959091FD038091FC03D7
:10250000981750F4E92FF0E0E250FC4F208130E0C2
:102510009F5F9093FD0302C02FEF3FEFC901089525
:10252000E091FD038091FC03E81730F4F0E0E25005
:10253000FC4F808190E008958FEF9FEF08950895FC
:10254000AC01E091D403F091D5033097E1F0909184
:10255000FD038091FC039817B0F090E0292F30E044
:102560002617370754F4DA01A20FB31F8C91D90153
:10257000A250BC4F8C939F5FF1CF1092FD036093EC
:10258000FC03CB0119940895E091D603F091D70391
:10259000309729F01092DA031092D9031994089514
:1025A000CF92DF92EF92FF920F931F93CF93DF931F
:1025B0007C01262F972F8A018091D803882391F0E0
:1025C000C62FD72F6E01C40ED51ECC15DD0571F0B8
:1025D0006991D701ED91FC910190F081E02DC70147
:1025E0001995F3CF642F822F0E944814C801DF9100
:1025F000CF911F910F91FF90EF90DF90CF900895B2
:10260000CF93DF931F92CDB7DEB769832091D803B4
:102610002223D1F02091D903203240F021E030E094
:10262000FC013383228380E090E015C08091DA03BF
:10263000E82FF0E0E552FC4F998190838F5F809303
:10264000DA038093D90305C061E0CE0101960E94B0
:10265000481481E090E00F90DF91CF910895FC0144
:102660001382128288EE93E0A0E0B0E08483958329
:10267000A683B7838AEB92E09183808308951092BA
:10268000FD031092FC031092DA031092D9030C940C
:102690009013CF93DF93EC01862F0E94AE1384EC4E
:1026A00092E10E94661480EA92E10E946114CE01D8
:1026B000DF91CF910C943F13862F413208F040E216
:1026C0006EEF73E00E94B2131092FD038093FC033F
:1026D000089521E00C945C1381E08093D80360930B
:1026E000FB031092DA031092D90308950F93062F7B
:1026F00021E04091D9036BED73E08091FB030E94D0
:10270000F6131092DA031092D9031092D8030F91A6
:10271000089561E00C94761388EC93E00C942F13E9
:1027200010928B0481E0809389041092880461E008
:1027300084E10E943A1661E085E10E943A16E9EBD5
:10274000F0E080818E7F808380818D7F808388E42C
:102750008093B80085E48093BC000895880F80932F
:10276000BA000895413208F03FC090918B04911156
:10277000FCCF91E090938B04209389042FEF20935A
:102780001E0410926304240F2093620490938A0421
:1027900090918A04880F892B80938A048091880401
:1027A000813041F41092880480918A048093BB00A8
:1027B00085EC01C085EE8093BC0080918B04813054
:1027C000E1F380916304841710F44091630424E6DC
:1027D00034E0FB01D9018A2F821B841718F48D91F4
:1027E0008193F9CF842F089580E008950F934132AB
:1027F00008F046C090918B049111FCCF32E03093E9
:102800008B04009389043FEF30931E0410926304FD
:1028100040936204FB0164E674E0DB013A2F361B4F
:10282000341718F431913D93F9CF10928A04309106
:102830008A04880F832B80938A04809188048130D6
:1028400041F41092880480918A048093BB0085EC47
:1028500001C085EE8093BC00222321F080918B047F
:102860008230D1F380911E048F3F79F080911E0455
:10287000803241F080911E04803331F094E005C035
:1028800091E003C092E001C093E0892F0F91089579
:10289000613298F420918B04243089F460934004D1
:1028A000FC0122E434E0D9018A2F821B861718F438
:1028B00081918D93F9CF80E0089581E0089582E0C1
:1028C00008959093850480938404089590938704D9
:1028D00080938604089585ED8093BC008091BC00B0
:1028E00084FDFCCF10928B04089585EC8093BC008E
:1028F00010928B0408951F920F920FB60F9211241D
:102900000BB60F922F933F934F935F936F937F93E9
:102910008F939F93AF93BF93EF93FF938091B900F1
:10292000887F803609F49CC068F5883209F45BC062
:1029300090F4803109F454C038F4882309F4F5C0C8
:10294000883009F44DC0F5C0883109F44CC080329C
:1029500009F45DC0EEC0803409F468C048F48033E7
:1029600009F455C0883309F0E4C080931E04A8C060
:10297000803509F44FC0883509F45DC0883409F00A
:10298000D8C0D5C0883909F4C6C0A8F4883709F47E
:1029900067C038F4883609F463C0803709F460C032
:1029A000C8C0883809F4B7C0803909F45FC08038DE
:1029B00009F0BFC05BC0803B09F485C038F4803AA1
:1029C00009F466C0883A09F47EC0B3C0803C09F4BB
:1029D000A6C0883C09F4A3C0883B09F489C0A9C0FB
:1029E00080918A0410C090916304809162049817CA
:1029F00070F5E091630481E08E0F80936304F0E052
:102A0000EC59FB4F80818093BB0085EC85C080939F
:102A10001E048DC0E091630481E08E0F80936304F7
:102A20008091BB00F0E0EC59FB4F808390916304F0
:102A3000809162046DC0E091630481E08E0F809309
:102A400063048091BB00F0E0EC59FB4F80838091E0
:102A5000890481116CC081E08093880484EA60C09D
:102A600083E080938B0410921F04CFCF80911F04CA
:102A7000803208F050C0E0911F0481E08E0F8093F7
:102A80001F048091BB00F0E0E05EFB4F8083BDCF70
:102A900080911F04803230F4E0911F04F0E0E05E8A
:102AA000FB4F10820E946B1460911F0470E0E09154
:102AB0008404F091850480E294E0199510921F043B
:102AC0000E94751436C084E080938B0410924104F8
:102AD00010924004E0918604F0918704199580914A
:102AE0004004811105C081E08093400410924204AB
:102AF000E091410481E08E0F80934104F0E0EE5BB1
:102B0000FB4F80818093BB009091410480914004F1
:102B1000981708F47ACF85E88093BC000AC085EC4A
:102B20008093BC0010928B0404C010921E040E947B
:102B30006B14FF91EF91BF91AF919F918F917F9116
:102B40006F915F914F913F912F910F900BBE0F901E
:102B50000FBE0F901F90189590E0FC013197E13166
:102B6000F10508F04AC08827EE58FF4F8F4F0C94AC
:102B7000DD29809180008F7703C0809180008F7D58
:102B800080938000089584B58F7702C084B58F7DCF
:102B900084BD08958091B0008F7703C08091B0000C
:102BA0008F7D8093B0000895809190008F7707C04B
:102BB000809190008F7D03C080919000877F8093EB
:102BC000900008958091A0008F7707C08091A000A9
:102BD0008F7D03C08091A000877F8093A00008951F
:102BE000809120018F7707C0809120018F7D03C0E5
:102BF00080912001877F809320010895CF93DF93F8
:102C000090E0FC01E65CFD4F2491FC01E058FD4F93
:102C10008491882361F190E0880F991FFC01E052B4
:102C2000FD4FC591D491FC01EA53FD4FA591B4919C
:102C3000611109C09FB7F894888120958223888309
:102C4000EC912E230BC0623061F49FB7F894388169
:102C5000822F809583238883EC912E2B2C939FBF0A
:102C600006C08FB7F894E8812E2B28838FBFDF91A1
:102C7000CF9108951F93CF93DF93282F30E0F90170
:102C8000EC50FE4F8491F901E65CFD4FD491F901BF
:102C9000E058FD4FC491CC23C9F0162F81110E943A
:102CA000AC15EC2FF0E0EE0FFF1FEA53FD4FA5919E
:102CB000B4918FB7F894111105C09C91ED2FE09558
:102CC000E92302C0EC91ED2BEC938FBFDF91CF9104
:102CD0001F9108951F920F920FB60F9211242F93F8
:102CE0003F938F939F93AF93BF9380918D04909167
:102CF0008E04A0918F04B091900430918C0423E055
:102D0000230F2D3720F40196A11DB11D05C026E823
:102D1000230F0296A11DB11D20938C0480938D0476
:102D200090938E04A0938F04B093900480919104AB
:102D300090919204A0919304B09194040196A11DE6
:102D4000B11D8093910490939204A0939304B09347
:102D50009404BF91AF919F918F913F912F910F90CC
:102D60000FBE0F901F9018952FB7F89460918D04A7
:102D700070918E0480918F04909190042FBF0895DC
:102D80003FB7F8948091910490919204A09193049C
:102D9000B091940426B5A89B05C02F3F19F0019669
:102DA000A11DB11D3FBFBA2FA92F982F8827820FD1
:102DB000911DA11DB11DBC01CD0142E0660F771F21
:102DC000881F991F4A95D1F70895CF92DF92EF920D
:102DD000FF92CF93DF936B017C010E94C016EB0141
:102DE000C114D104E104F10479F00E94C0166C1BF7
:102DF0007D0B683E7340A0F381E0C81AD108E1085A
:102E0000F108C851DC4FECCFDF91CF91FF90EF90EC
:102E1000DF90CF900895789484B5826084BD84B5A6
:102E2000816084BD85B5826085BD85B5816085BDC5
:102E3000EEE6F0E0808181608083E1E8F0E01082DE
:102E4000808182608083808181608083E0E8F0E01F
:102E5000808181608083E1EBF0E080818460808309
:102E6000E0EBF0E0808181608083E1E9F0E0808147
:102E700082608083808181608083E0E9F0E08081EE
:102E800081608083E1EAF0E08081826080838081DC
:102E900081608083E0EAF0E0808181608083E1E20C
:102EA000F1E0808182608083808181608083E0E2C4
:102EB000F1E0808181608083EAE7F0E080818460D6
:102EC0008083808182608083808181608083808133
:102ED000806880831092C1000895863308F086537D
:102EE00090917B00282F2870977F922B90937B00E6
:102EF00087702091300290E4299F90011124822B49
:102F000080937C0080917A00806480937A00809125
:102F10007A0086FDFCCF809178002091790090E0C6
:102F2000922B08951F93CF93DF93182FEB0161E04D
:102F30000E94FE15209711F460E004C0CF3FD10538
:102F400039F461E0812FDF91CF911F910C943A16F3
:102F5000E12FF0E0EC50FE4FE4914E2F50E0FA01EB
:102F60003197E131F10508F093C08827ED57FF4F05
:102F70008F4F0C94DD2984B5806884BDC7BD8DC09A
:102F800084B5806284BDC8BD88C08091800080689F
:102F900080938000D0938900C09388007EC0809188
:102FA0008000806280938000D0938B00C0938A0061
:102FB00074C08091B00080688093B000C093B3006B
:102FC0006CC08091B00080628093B000C093B40068
:102FD00064C080919000806880939000D0939900A5
:102FE000C09398005AC080919000806280939000B6
:102FF000D0939B00C0939A0050C08091900088604D
:1030000080939000D0939D00C0939C0046C0809117
:10301000A00080688093A0008091A0008F7B8093A7
:10302000A000D093A900C093A80037C08091A00051
:1030300080628093A000D093AB00C093AA002DC003
:103040008091A00088608093A000D093AD00C093D1
:10305000AC0023C080912001806880932001D09330
:103060002901C093280119C08091200180628093BA
:103070002001D0932B01C0932A010FC08091200121
:10308000886080932001D0932D01C0932C0105C04E
:10309000C038D1050CF055CF4FCFDF91CF911F91A4
:1030A00008954F925F926F927F92AF92BF92CF92AC
:1030B000DF92EF92FF920F931F93CF93DF93CDB7E1
:1030C000DEB729013A019B01AC01241935094609F3
:1030D00057098A899B89AC89BD89BC01CD016A19D0
:1030E0007B098C099D090E948029A8019701241958
:1030F0003509460957090E94BE29CA01B9016A0D5E
:103100007B1D8C1D9D1DDF91CF911F910F91FF9015
:10311000EF90DF90CF90BF90AF907F906F905F90D7
:103120004F900895CF92DF92EF92FF920F931F93EB
:10313000CF93DF936C01EB017B01E40EF51E00E001
:1031400010E0CE15DF0561F06991D601ED91FC919B
:103150000190F081E02DC6011995080F191FF1CFDC
:10316000C801DF91CF911F910F91FF90EF90DF90F9
:10317000CF9008956115710579F0FB010190002051
:10318000E9F73197AF01461B570BDC01ED91FC913C
:103190000280F381E02D199480E090E008950C9472
:1031A000BA18DC01ED91FC910190F081E02D1994A9
:1031B0000F931F93CF93DF93EC016DE00E94D11822
:1031C0008C016AE0CE010E94D118800F911FDF911F
:1031D000CF911F910F9108950F931F93CF93DF937A
:1031E000EC010E94BA188C01CE010E94D818800F01
:1031F000911FDF91CF911F910F9108958F929F9210
:10320000AF92BF92CF92DF92EF92FF920F931F93F4
:10321000CF93DF93CDB7DEB7A1970FB6F894DEBF9B
:103220000FBECDBF6C01142FE52FCB01022F19A2C9
:10323000223008F40AE07E0121E2E20EF11C802E29
:10324000912CA12CB12C612F7E2FA50194010E94FD
:103250009C29029F1019112481E0E81AF1081A3004
:1032600014F4105D01C0195CF7011083122FE32FD5
:10327000CA01232B242B252B31F7B701C6010E944D
:10328000BA18A1960FB6F894DEBF0FBECDBFDF917E
:10329000CF911F910F91FF90EF90DF90CF90BF9053
:1032A000AF909F908F900895CF92DF92EF92FF9210
:1032B0000F931F93CF93DF93EC016A017B012115DC
:1032C000310579F4E881F9810190F081E02D642FD6
:1032D000DF91CF911F910F91FF90EF90DF90CF90F2
:1032E00019942A303105E9F477FF1AC06DE20E9483
:1032F000D1188C0144275527BA014C195D096E0974
:103300007F092AE0CE010E94FE18800F911FDF91F5
:10331000CF911F910F91FF90EF90DF90CF90089584
:103320002AE0B701A601CE01DF91CF911F910F9145
:10333000FF90EF90DF90CF900C94FE189A01AB01B4
:10334000770F660B770B0C9454190F931F93CF9341
:10335000DF93EC019A01AB01770F660B770B0E94AC
:1033600054198C01CE010E94D818800F911FDF9153
:10337000CF911F910F9108952115310541F4DC0182
:10338000ED91FC910190F081E02D642F19940C9443
:10339000FE189A01462F50E060E070E00C94BC19D2
:1033A0000F931F93CF93DF93EC019A01462F50E0C8
:1033B00060E070E00E94BC198C01CE010E94D81818
:1033C000800F911FDF91CF911F910F9108954F9220
:1033D0005F926F927F928F929F92AF92BF92CF92A5
:1033E000DF92EF92FF92CF93DF93EC016A017B01B2
:1033F000B22E9A01AB01C701B6010E947B29882336
:1034000019F066EC72E027C026013701E89477F8DE
:103410002FEF3FEF4FE75FE7C301B2010E947B2927
:1034200081110DC02FEF3FEF4FE75FE7C301B201FE
:103430000E94AA2718161CF46AEC72E00CC02FEF49
:103440003FEF4FE75FE4C701B6010E940929181654
:103450009CF46EEC72E0CE01DF91CF91FF90EF9083
:10346000DF90CF90BF90AF909F908F907F906F90A4
:103470005F904F900C94BA182FEF3FEF4FE75FEC3F
:10348000C701B6010E94AA2787FDE3CF20E030E004
:10349000A901C701B6010E94AA2787FF0AC06DE2F1
:1034A000CE010E94D1184C01F7FAF094F7F8F0948D
:1034B00002C0812C912CA12C60E070E080E09FE3A1
:1034C000AB1441F020E030E040E251E40E94AF272D
:1034D000A394F6CF9B01AC01C701B6010E943E2721
:1034E0002B013C010E9428286B017C010E94572877
:1034F0009B01AC01C301B2010E943D272B013C019D
:103500002AE0B701A601CE010E94FE187C01E80C5A
:10351000F91CBB2039F063E572E0CE010E94BA18B5
:10352000E80EF91EDB2CDD2039F120E030E040E22E
:1035300051E4C301B2010E940E292B013C010E94FB
:1035400021284B01770FAA08BB082AE030E0B5011B
:10355000A401CE010E945419E80EF91EC501B40160
:103560000E9459289B01AC01C301B2010E943D2772
:103570002B013C01DA94D7CFC701DF91CF91FF90A7
:10358000EF90DF90CF90BF90AF909F908F907F9003
:103590006F905F904F9008950C94E7190F931F93CD
:1035A000CF93DF93EC010E94E7198C01CE010E94BA
:1035B000D818800F911FDF91CF911F910F9108951F
:1035C0000E940B170E94C603C0EBD2E20E94EB04DC
:1035D0002097E1F30E94B022F9CF0F931F93CF936E
:1035E000DF93EC010E94B416688779878A879B87EE
:1035F000E881F9810680F781E02DCE01199597FFCA
:1036000017C00E94B416088519852A853B85DC0100
:10361000CB01801B910BA20BB30B0C811D812E8162
:103620003F8180179107A207B30710F38FEF9FEF39
:10363000DF91CF911F910F910895EF92FF920F9319
:103640001F93CF93DF93EC017B01042F6BEA72E0B1
:103650000E94B31BC7010E94ED1A002E000C110B33
:1036600097FD0BC08017910741F0682FCE010E9493
:103670002F1CC7010E94ED1AF3CFCE01DF91CF912D
:103680001F910F91FF90EF900895FC01808191812F
:103690000C94BC25CF93DF93EC018881998100972E
:1036A00011F00E94BC25198218821D821C821B8287
:1036B0001A82DF91CF9108950F931F93CF93DF93D9
:1036C000EC018B016F5F7F4F888199810E945426A6
:1036D000009731F0998388831B830A8381E001C0BE
:1036E00080E0DF91CF911F910F910895CF93DF93E9
:1036F000EC0188819981892B29F08A819B81861729
:10370000970760F4CE010E945C1B882341F08C81F6
:103710009D81892B19F4E881F981108281E0DF9184
:10372000CF910895EF92FF920F931F93CF93DF9362
:10373000EC017B018A01BA010E94761B811104C051
:10374000CE010E944A1B07C01D830C83B7018881EC
:1037500099810E94502ACE01DF91CF911F910F9144
:10376000FF90EF900895FC01118210821382128263
:103770001582148216826115710551F0FB010190CA
:103780000020E9F73197AF01461B570B0C94921BB1
:103790000895CF93DF93EC01FB018617970761F043
:1037A000608171816115710529F0448155810E9404
:1037B000921B02C00E944A1BCE01DF91CF91089557
:1037C000FC011182108213821282158214821682E9
:1037D0000C94C91BCF93DF93EC016115710559F06F
:1037E000FB0101900020E9F73197AF01461B570B11
:1037F0000E94921B02C00E944A1BCE01DF91CF9112
:103800000895EF92FF920F931F93CF93DF93FC01E4
:10381000248135816115710511F480E019C04115CD
:103820005105A9F07B01EC018A01020F131FB801B9
:103830000E94761B882389F3288139818C819D81A0
:10384000B701820F931F0E94502A1D830C8381E0D1
:10385000DF91CF911F910F91FF90EF900895CF933B
:10386000DF931F921F92CDB7DEB769831A8241E0C2
:1038700050E0BE016F5F7F4F0E94011C0F900F90C0
:10388000DF91CF910895FC0124813581232B31F400
:1038900021E061157105A1F0FB0108C0FC018081E8
:1038A00091816115710531F421E0FC01808188234B
:1038B00039F005C00E94472A21E0892B09F020E059
:1038C000822F0895FC01248135816217730720F44B
:1038D00080819181009729F41092950485E994E004
:1038E0000895860F971F0895FC0124813581621782
:1038F000730748F480819181009729F0FC01E60F5D
:10390000F71F8081089580E008950C94741C0F9334
:103910001F93CF93DF934115510519F1611571057F
:1039200001F1DC011496ED91FC9115972E173F07DC
:1039300018F0FB01108215C0E21BF30BEA0121977E
:10394000EC17FD0708F4EF018B01FC016081718128
:10395000620F731FAE01C8010E94572AC00FD11F0A
:103960001882DF91CF911F910F910895CF93DF932C
:10397000FC01248135814217530778F4C081D1813D
:10398000062E000C770BCE01840F951F0E943C2A57
:10399000009719F08C1B9D0B02C08FEF9FEFDF91FA
:1039A000CF91089540E050E00C94B61CBF92CF92A6
:1039B000DF92EF92FF920F931F93CF93DF937C01DF
:1039C0006B018A01E9012417350720F4812F890151
:1039D000C42FD82F6BEA72E0C7010E94B31BD60137
:1039E00014968D919C91159780179107D0F08C17A4
:1039F0009D0708F4EC01D601ED91FC911197EC0FB5
:103A0000FD1FB08010824D915C91BA01600F711F53
:103A1000C7010E94EA1BD601ED91FC91EC0FFD1F3E
:103A2000B082C701DF91CF911F910F91FF90EF906E
:103A3000DF90CF90BF900895FC0180819181009725
:103A400011F00C94032A60E070E0CB0108953F92DE
:103A50004F925F926F927F928F929F92AF92BF929E
:103A6000CF92DF92EF92FF920F931F93CF93DF934A
:103A700000D01F92CDB7DEB729013A0190913102F3
:103A8000981721F09F3F09F02BC304C0EAEFF2E042
:103A9000349004C180933102EAEFF2E0E491EF3F09
:103AA00009F41EC3E23009F480C074F5EE2309F472
:103AB0005BC0E13009F0F1C01092800010928100EB
:103AC0009091810098609093810090918100916025
:103AD00090938100282F30E0F901E058FD4FE491E8
:103AE000F0E0EE0FFF1FEA53FD4F459154915093C4
:103AF000B4044093B304F901E65CFD4FE491E09314
:103B0000B20433243394CCC0E43009F49EC00CF4E6
:103B100074C0E53009F0C1C010922001109221015B
:103B200090912101986090932101909121019160E1
:103B300090932101482F50E0FA01E058FD4FE491A5
:103B4000F0E0EE0FFF1FEA53FD4F259134913093C3
:103B5000980420939704FA01E65CFD4FE491E0930A
:103B60009604B5E03B2E9CC014BC15BC94B5926085
:103B700094BD95B5916095BD282F30E0F901E058CE
:103B8000FD4FE491F0E0EE0FFF1FEA53FD4F45912A
:103B900054915093BB044093BA04F901E65CFD4F85
:103BA000E491E093B904312C7BC01092B0001092E4
:103BB000B1009091B00092609093B0009091B100EC
:103BC00091609093B100282F30E0F901E058FD4F4B
:103BD000E491F0E0EE0FFF1FEA53FD4F4591549141
:103BE0005093AD044093AC04F901E65CFD4FE491C1
:103BF000E093AB0452E0352E53C010929000109227
:103C00009100909191009860909391009091910013
:103C1000916090939100282F30E0F901E058FD4F1A
:103C2000E491F0E0EE0FFF1FEA53FD4F45915491F0
:103C30005093A6044093A504F901E65CFD4FE4917E
:103C4000E093A40423E0322E2BC01092A000109227
:103C5000A1009091A10098609093A1009091A10083
:103C600091609093A100282F30E0F901E058FD4FBA
:103C7000E491F0E0EE0FFF1FEA53FD4F45915491A0
:103C800050939F0440939E04F901E65CFD4FE4913C
:103C9000E0939D0404E0302E03C03E2E37FC20C28A
:103CA0008B0161E00E94FE154801A12CB12C832DEF
:103CB0008D7F09F0B4C060E072E18AE790E0A50171
:103CC00094010E94BE2929833A834B835C83690156
:103CD0007A0121E0C21AD108E108F1088FEFC81675
:103CE000D104E104F10409F008F44CC060E472E48A
:103CF0008FE090E0A50194010E94BE2969017A013C
:103D000091E0C91AD108E108F108E2E03E1220C0B2
:103D1000FFEFCF16D104E104F10409F008F4DEC18D
:103D200060E970ED83E090E0A50194010E94BE2956
:103D300069017A0181E0C81AD108E108F1089FEF12
:103D4000C916D104E104F10409F0B8F583E064C0B8
:103D5000EFEFCE16D104E104F104B1F0A8F068E46D
:103D600078EE81E090E0A50194010E94BE296901EE
:103D70007A01F1E0CF1AD108E108F108332009F403
:103D800053C1A3C181E001C082E03320A1F044C04F
:103D900089819A81AB81BC812AE0B595A7959795D9
:103DA00087952A95D1F76C017D01F1E0CF1AD108F2
:103DB000E108F10885E085BDA2C068E478EE81E005
:103DC00090E0A50194010E94BE2969017A0181E079
:103DD000C81AD108E108F1089FEFC916D104E1041F
:103DE000F10409F008F41EC164E274EF80E090E091
:103DF000A50194010E94BE2969017A0181E0C81AD7
:103E0000D108E108F1089FEFC916D104E104F104DB
:103E100011F008F02BC185E08093B10070C060E024
:103E200072E18AE790E0A50194010E94BE29690130
:103E30007A01F1E0CF1AD108E108F108C114D104E8
:103E400021E0E206F10488F068E478EE81E090E099
:103E5000A50194010E94BE2969017A0181E0C81A76
:103E6000D108E108F10883E001C081E091E0391256
:103E700010C090918100987F892B8093810041141C
:103E800051046104710409F03FC02FEF3FEFA90115
:103E900071C0E3E03E120FC090919100987F892B92
:103EA00080939100411451046104710469F52FEF6E
:103EB0003FEFA90181C0F4E03F120FC09091A10033
:103EC000987F892B8093A1004114510461047104EF
:103ED000D9F42FEF3FEFA90181C025E032120FC0C6
:103EE00090912101987F892B8093210141145104E5
:103EF0006104710449F42FEF3FEFA90181C041141F
:103F000051046104710471F0D801AA0FBB1FA30111
:103F100092010E94E52928EE33E040E050E00E9443
:103F20009C2903C02FEF3FEFA90182E03816A1F1D1
:103F3000831534F0332079F091E03916D9F0D0C0F0
:103F4000E4E03E1609F44AC03E16B4F1F5E03F162F
:103F500009F456C0C5C0C7BC2093BC043093BD044F
:103F60004093BE045093BF0480916E0082608093A2
:103F70006E00B6C0D0928900C09288002093B5042C
:103F80003093B6044093B7045093B80480916F0007
:103F9000826080936F00A4C0C092B3002093AE04EF
:103FA0003093AF044093B0045093B10480917000FB
:103FB00082608093700094C0D0929900C092980063
:103FC0002093A7043093A8044093A9045093AA0413
:103FD0008091710082608093710082C0D092A900AC
:103FE000C092A8002093A0043093A1044093A2049F
:103FF0005093A3048091720082608093720070C01D
:10400000D0922901C09228012093990430939A04F8
:1040100040939B0450939C04809173008260809332
:1040200073005EC084E0F8CE2FEFC216D104E10425
:10403000F104D1F0C8F062E17AE780E090E0A501F8
:1040400094010E94BE2969017A01E1E0CE1AD108EB
:10405000E108F108FFEFCF16D104E104F10411F0FB
:1040600008F096CE84E0A7CE83E0A5CE62E17AE7A1
:1040700080E090E0A50194010E94BE2969017A01C7
:1040800081E0C81AD108E108F1089FEFC916D104F0
:10409000E104F104C1F0B8F089819A81AB81BC815F
:1040A0004AE0B595A795979587954A95D1F76C0104
:1040B0007D01E1E0CE1AD108E108F108332009F4CE
:1040C00079CE87E0A9CE86E060CEEFEFCE16D104A0
:1040D000E104F10409F050F684E057CE82E09CCE72
:1040E0000F900F900F900F90DF91CF911F910F9134
:1040F000FF90EF90DF90CF90BF90AF909F908F9008
:104100007F906F905F904F903F9008958230A9F01C
:1041100028F4882349F0813051F00895843009F162
:10412000E8F0853009F1089510926E0008958091AD
:104130006F008D7F80936F000895809170008D7F58
:104140008093700081E08093B0008091B100887FFF
:1041500084608093B1001092B300089510927100B2
:104160000895109272000895109273000895CF93ED
:10417000C82F809131028C1307C0EAEFF2E0E4917E
:104180008FEF8093310201C0EFEF8E2F0E948620C7
:1041900060E08C2FCF910C943A161F920F920FB6BD
:1041A0000F9211240BB60F922F933F934F935F936F
:1041B0006F937F938F939F93AF93BF93EF93FF93EF
:1041C0008091AE049091AF04A091B004B091B1047D
:1041D000892B8A2B8B2B51F18091AB04E091AC049D
:1041E000F091AD049081892780838091AE049091F5
:1041F000AF04A091B004B091B104181619061A06C4
:104200001B06C4F48091AE049091AF04A091B00459
:10421000B091B1040197A109B1098093AE049093C4
:10422000AF04A093B004B093B10404C080913102F4
:104230000E94B720FF91EF91BF91AF919F918F9115
:104240007F916F915F914F913F912F910F900BBE96
:104250000F900FBE0F901F901895FC012485358597
:10426000F901E05CFF4F808191813296208131819C
:10427000821B930B8F7399270895DC011C96ED9197
:10428000FC911D97DF01A05CBF4F2D913C911197D0
:1042900012968D919C9111972817390739F08D91BD
:1042A0009C91E80FF91F808190E008958FEF9FEFB8
:1042B0000895FC01A485B585FD01E05CFF4F2081D8
:1042C00031813296808191812817390779F0808178
:1042D0009181A80FB91F8C91208131812F5F3F4FB1
:1042E0002F7333273183208390E008958FEF9FEF62
:1042F0000895FC0181A1882329F0A489B5898C91B6
:1043000086FFFBCF11A208950F931F93CF93DF93E6
:10431000FC01A685B7858D01005C1F4FE8018881EF
:10432000998101968F739927AD014E5B5F4FEA012A
:104330002881398182179307D1F3E80128813981D7
:10434000A20FB31F6C93A685B785A05CBF4F1196D3
:104350009C938E93A689B7892C9181E090E0078C7D
:1043600002C0880F991F0A94E2F7822B8C9381E098
:1043700081A30488F589E02D80818064808381E0B9
:1043800090E0DF91CF911F910F910895FB01E05CC8
:10439000FF4F208131812F5F3F4F2F733327DB0188
:1043A000AE5BBF4F4D915C912417350741F04081C2
:1043B0005181DB01A40FB51F8C93318320830895B5
:1043C00008951F920F920FB60F9211240BB60F9201
:1043D0002F933F934F935F936F937F938F939F930D
:1043E000AF93BF93EF93FF938091C00082FD07C00E
:1043F0008091C60064E277E00E94C62102C08091ED
:10440000C600FF91EF91BF91AF919F918F917F91E6
:104410006F915F914F913F912F910F900BBE0F9035
:104420000FBE0F901F90189508951F920F920FB610
:104430000F9211240BB60F922F933F934F935F93DC
:104440006F937F938F939F93AF93BF93EF93FF935C
:104450008091C80082FD07C08091CE006CE976E0B3
:104460000E94C62102C08091CE00FF91EF91BF91C2
:10447000AF919F918F917F916F915F914F913F91FC
:104480002F910F900BBE0F900FBE0F901F9018959D
:1044900008951F920F920FB60F9211240BB60F9230
:1044A0002F933F934F935F936F937F938F939F933C
:1044B000AF93BF93EF93FF938091D00082FD07C02D
:1044C0008091D60064E176E00E94C62102C080910E
:1044D000D600FF91EF91BF91AF919F918F917F9106
:1044E0006F915F914F913F912F910F900BBE0F9065
:1044F0000FBE0F901F90189508951F920F920FB640
:104500000F9211240BB60F922F933F934F935F930B
:104510006F937F938F939F93AF93BF93EF93FF938B
:104520008091300182FD07C0809136016CE875E012
:104530000E94C62102C080913601FF91EF91BF9188
:10454000AF919F918F917F916F915F914F913F912B
:104550002F910F900BBE0F900FBE0F901F901895CC
:1045600086E295E00E942D21892B11F00E94E02126
:1045700084E095E00E942D21892B11F00E941422E5
:1045800082EE94E00E942D21892B11F00E94482296
:1045900080EC94E00E942D21892B11F00C947C2258
:1045A00008951F920F920FB60F9211240BB60F921F
:1045B0002F933F938F939F93EF93FF932091200727
:1045C00030912107809122079091230728173907FE
:1045D00031F48091C1008F7D8093C10014C0E091BF
:1045E0002207F0912307E052F94F208180912207A2
:1045F0009091230701968F739927909323078093B7
:1046000022072093C600FF91EF919F918F913F91D8
:104610002F910F900BBE0F900FBE0F901F9018950B
:104620001F920F920FB60F9211240BB60F922F9379
:104630003F938F939F93EF93FF9320919806309130
:10464000990680919A0690919B062817390731F4B4
:104650008091C9008F7D8093C90014C0E0919A06B3
:10466000F0919B06E85AF94F208180919A0690912B
:104670009B0601968F73992790939B0680939A06C9
:104680002093CE00FF91EF919F918F913F912F91B9
:104690000F900BBE0F900FBE0F901F9018951F929A
:1046A0000F920FB60F9211240BB60F922F933F93D8
:1046B0008F939F93EF93FF932091100630911106F3
:1046C00080911206909113062817390731F48091D2
:1046D000D1008F7D8093D10014C0E0911206F0913B
:1046E0001306E053FA4F2081809112069091130631
:1046F00001968F7399279093130680931206209347
:10470000D600FF91EF919F918F913F912F910F9044
:104710000BBE0F900FBE0F901F9018951F920F9217
:104720000FB60F9211240BB60F922F933F938F93D6
:104730009F93EF93FF932091880530918905809195
:104740008A0590918B052817390731F48091310142
:104750008F7D8093310114C0E0918A05F0918B0523
:10476000E85BFA4F208180918A0590918B05019634
:104770008F73992790938B0580938A052093360138
:10478000FF91EF919F918F913F912F910F900BBED1
:104790000F900FBE0F901F901895CF92DF92EF925F
:1047A000FF920F931F93CF93DF93EC016A017B017C
:1047B0004115514E6105710509F1EC89FD8981E0D2
:1047C00090E008A002C0880F991F0A94E2F7808346
:1047D00060E079E08DE390E0A70196010E949C29BA
:1047E00089019A010150110921093109369527954E
:1047F00017950795980101151041A8F0EC89FD89DE
:10480000108260E874E88EE190E0A70196010E94B2
:104810009C29DA01C9010197A109B109B695A795AB
:10482000979587959C01E889F9893083EA89FB8906
:10483000208319A2EE89FF89408181E090E09C01EC
:104840000C8C02C0220F331F0A94E2F7242B208322
:10485000EE89FF8940819C010D8C02C0220F331F1D
:104860000A94E2F7242B2083EE89FF8940819C0182
:104870000E8C02C0220F331F0A94E2F7242B2083F0
:10488000EE89FF8920810F8C02C0880F991F0A943E
:10489000E2F7809582238083DF91CF911F910F9162
:1048A000FF90EF90DF90CF900895CF92DF92EF923C
:1048B000FF92E6E2F5E01382128288EEC82E83E0D2
:1048C000D82EE12CF12CC482D582E682F78266EDE7
:1048D00072E07183608384E297E09587848780EE3D
:1048E00096E09787868785EC90E0918B808B84ECAF
:1048F00090E0938B828B80EC90E0958B848B81ECA5
:1049000090E0978B868B82EC90E0918F808F86EC85
:1049100090E0938F828F44E0448F33E0358F27E01F
:10492000268F95E0978F81E080A3E4E0F5E0138285
:104930001282C482D582E682F78271836083ACE9F9
:10494000B6E0B587A487A8E5B6E0B787A687ADEC43
:10495000B0E0B18BA08BACECB0E0B38BA28BA8EC39
:10496000B0E0B58BA48BA9ECB0E0B78BA68BAAEC1A
:10497000B0E0B18FA08FAEECB0E0B38FA28F448FC8
:10498000358F268F978F80A3E2EEF4E01382128298
:10499000C482D582E682F78271836083A4E1B6E0A7
:1049A000B587A487A0EDB5E0B787A687A5EDB0E0F1
:1049B000B18BA08BA4EDB0E0B38BA28BA0EDB0E0E7
:1049C000B58BA48BA1EDB0E0B78BA68BA2EDB0E0C8
:1049D000B18FA08FA6EDB0E0B38FA28F448F358F3B
:1049E000268F978F80A3E0ECF4E013821282C482BA
:1049F000D582E682F782718360836CE875E0758703
:104A0000648768E475E07787668765E371E0718B9A
:104A1000608B64E371E0738B628B60E371E0758B94
:104A2000648B61E371E0778B668B62E371E0718F79
:104A3000608F66E371E0738F628F448F358F268FAE
:104A4000978F80A3FF90EF90DF90CF900895CF9342
:104A5000DF938230910510F482E090E0E0916A07E4
:104A6000F0916B0720E030E0C0E0D0E0309711F12A
:104A70004081518148175907C0F04817590761F420
:104A800082819381209719F09B838A832BC0909316
:104A90006B0780936A0726C02115310519F042176C
:104AA000530718F49A01BE01DF01EF010280F38180
:104AB000E02DDCCF2115310509F1281B390B2430FD
:104AC000310590F412968D919C91139761157105A3
:104AD00021F0FB019383828304C090936B07809342
:104AE0006A07FD01329644C0FD01E20FF31F819376
:104AF0009193225031092D933C933AC0209168073D
:104B000030916907232B41F4209134023091350212
:104B10003093690720936807209132023091330265
:104B20002115310541F42DB73EB740913602509121
:104B30003702241B350BE0916807F0916907E217F3
:104B4000F307A0F42E1B3F0B2817390778F0AC01B0
:104B50004E5F5F4F2417350748F04E0F5F1F50938D
:104B60006907409368078193919302C0E0E0F0E009
:104B7000CF01DF91CF9108950F931F93CF93DF93D0
:104B8000009709F48CC0FC013297138212820091C5
:104B90006A0710916B070115110581F4208131819D
:104BA000820F931F209168073091690728173907F2
:104BB00079F5F0936907E093680771C0D80140E088
:104BC00050E0AE17BF0750F412962D913C91139709
:104BD000AD012115310509F1D901F3CF9D01DA01AC
:104BE0003383228360817181860F971F8217930719
:104BF00069F4EC0128813981260F371F2E5F3F4F62
:104C0000318320838A819B8193838283452B29F47E
:104C1000F0936B07E0936A0742C01396FC93EE9300
:104C20001297ED01499159919E01240F351FE2170A
:104C3000F30771F480819181840F951F029611967C
:104C40009C938E938281938113969C938E9312975B
:104C5000E0E0F0E0D80112968D919C9113970097B7
:104C600019F0F8018C01F6CF8D919C9198012E5F7F
:104C70003F4F820F931F20916807309169072817D3
:104C8000390769F4309729F410926B0710926A077C
:104C900002C0138212821093690700936807DF91A4
:104CA000CF911F910F9108956F927F928F929F9253
:104CB000AF92BF92CF92DF92EF92FF920F931F932A
:104CC000CF93DF93EC01009789F4CB01DF91CF9173
:104CD0001F910F91FF90EF90DF90CF90BF90AF901A
:104CE0009F908F907F906F900C942725FC01E60F8A
:104CF000F71F9C0122503109E217F30708F4ACC0FA
:104D0000D9010D911C91119706171707B0F00530C6
:104D1000110508F49FC0C80104978617970708F487
:104D200099C002501109061B170B019311936D9343
:104D30007C93CF010E94BC258DC05B01A01AB10AF3
:104D40004C01800E911EA0916A07B0916B0740E064
:104D500050E0E12CF12C109709F44AC0A815B905D0
:104D6000D1F56D907C901197630182E0C80ED11C43
:104D7000CA14DB0480F1A3014A195B096A0182E0CD
:104D8000C80ED11C1296BC9012971396AC91B5E048
:104D9000CB16D10440F0B282A38351834083D90162
:104DA0006D937C930AC00E5F1F4FC301800F911F4C
:104DB000F90191838083EB2DFA2FE114F10431F096
:104DC000D7011396FC93EE93129744C0F0936B07B0
:104DD000E0936A073FC08D919C911197481759073E
:104DE00008F4AC017D0112960D90BC91A02DB3CFBB
:104DF000809168079091690788159905E1F4461735
:104E00005707C8F48091320290913302009741F421
:104E10008DB79EB74091360250913702841B950B97
:104E2000E817F907C8F4F0936907E0936807F901F8
:104E3000718360830FC0CB010E9427257C010097FE
:104E400059F0A801BE010E94332ACE010E94BC2560
:104E5000C70104C0CE0102C080E090E0DF91CF9195
:104E60001F910F91FF90EF90DF90CF90BF90AF9088
:104E70009F908F907F906F9008955058BB27AA27DE
:104E80000E9455270C94CF280E94C12838F00E9418
:104E9000C82820F039F49F3F19F426F40C94BE285A
:104EA0000EF4E095E7FB0C94B828E92F0E94E02867
:104EB00058F3BA17620773078407950720F079F44F
:104EC000A6F50C9402290EF4E0950B2EBA2FA02D16
:104ED0000B01B90190010C01CA01A0011124FF27A7
:104EE000591B99F0593F50F4503E68F11A16F040A2
:104EF000A22F232F342F4427585FF3CF46953795A1
:104F00002795A795F0405395C9F77EF41F16BA0B65
:104F1000620B730B840BBAF09150A1F0FF0FBB1F13
:104F2000661F771F881FC2F70EC0BA0F621F731F5C
:104F3000841F48F4879577956795B795F7959E3FB9
:104F400008F0B0CF9395880F08F09927EE0F97954A
:104F5000879508950E94942808F481E008950E949E
:104F6000C3270C94CF280E94C82858F00E94C1285B
:104F700040F029F45F3F29F00C94B82851110C94AB
:104F800003290C94BE280E94E02868F39923B1F30A
:104F9000552391F3951B550BBB27AA27621773075F
:104FA000840738F09F5F5F4F220F331F441FAA1FF3
:104FB000A9F335D00E2E3AF0E0E832D091505040AF
:104FC000E695001CCAF72BD0FE2F29D0660F771F5D
:104FD000881FBB1F261737074807AB07B0E809F043
:104FE000BB0B802DBF01FF2793585F4F3AF09E3FC8
:104FF000510578F00C94B8280C9403295F3FE4F332
:10500000983ED4F3869577956795B795F7959F5F0A
:10501000C9F7880F911D9695879597F90895E1E056
:10502000660F771F881FBB1F621773078407BA07B5
:1050300020F0621B730B840BBA0BEE1F88F7E09510
:1050400008950E9428286894B1110C9403290895AA
:105050000E94E82888F09F5798F0B92F9927B751F8
:10506000B0F0E1F0660F771F881F991F1AF0BA950C
:10507000C9F714C0B13091F00E940229B1E008953F
:105080000C940229672F782F8827B85F39F0B93F31
:10509000CCF3869577956795B395D9F73EF49095BF
:1050A0008095709561957F4F8F4F9F4F0895E8943D
:1050B00009C097FB3EF490958095709561957F4F60
:1050C0008F4F9F4F9923A9F0F92F96E9BB2793950E
:1050D000F695879577956795B795F111F8CFFAF41E
:1050E000BB0F11F460FF1BC06F5F7F4F8F4F9F4F4F
:1050F00016C0882311F096E911C0772321F09EE8AD
:10510000872F762F05C0662371F096E8862F70E012
:1051100060E02AF09A95660F771F881FDAF7880FEC
:105120009695879597F90895990F0008550FAA0B42
:10513000E0E8FEEF16161706E807F907C0F01216AA
:105140001306E407F50798F0621B730B840B950BAD
:1051500039F40A2661F0232B242B252B21F4089502
:105160000A2609F4A140A6958FEF811D811D08959F
:1051700097F99F6780E870E060E008959FEF80EC0A
:10518000089500240A9416161706180609060895AD
:1051900000240A9412161306140605060895092E13
:1051A0000394000C11F4882352F0BB0F40F4BF2B82
:1051B00011F460FF04C06F5F7F4F8F4F9F4F0895C2
:1051C00057FD9058440F551F59F05F3F71F04795B8
:1051D000880F97FB991F61F09F3F79F0879508959D
:1051E000121613061406551FF2CF4695F1DF08C0BC
:1051F000161617061806991FF1CF869571056105D9
:1052000008940895E894BB2766277727CB0197F980
:1052100008950E94942808F48FEF08950E94212990
:105220000C94CF280E94C12838F00E94C82820F092
:10523000952311F00C94B8280C94BE2811240C94DA
:1052400003290E94E02870F3959FC1F3950F50E069
:10525000551F629FF001729FBB27F00DB11D639F28
:10526000AA27F00DB11DAA1F649F6627B00DA11DCE
:10527000661F829F2227B00DA11D621F739FB00D74
:10528000A11D621F839FA00D611D221F749F3327E4
:10529000A00D611D231F849F600D211D822F762F7D
:1052A0006A2F11249F5750409AF0F1F088234AF05A
:1052B000EE0FFF1FBB1F661F771F881F91505040C6
:1052C000A9F79E3F510580F00C94B8280C9403294F
:1052D0005F3FE4F3983ED4F3869577956795B7954D
:1052E000F795E7959F5FC1F7FE2B880F911D969567
:1052F000879597F908950E949428880B990B089533
:10530000DB018F939F930E94E529BF91AF91A29FEC
:10531000800D911DA39F900DB29F900D11240895B3
:10532000991B79E004C0991F961708F0961B881FF7
:105330007A95C9F780950895A1E21A2EAA1BBB1B86
:10534000FD010DC0AA1FBB1FEE1FFF1FA217B30751
:10535000E407F50720F0A21BB30BE40BF50B661F67
:10536000771F881F991F1A9469F76095709580952B
:1053700090959B01AC01BD01CF010895052E97FBCF
:105380001EF400940E94D52957FD07D00E949C2945
:1053900007FC03D04EF40C94D529509540953095D8
:1053A00021953F4F4F4F5F4F089590958095709591
:1053B00061957F4F8F4F9F4F0895EE0FFF1F881FFE
:1053C0008BBF0790F691E02D19940E94F029A59FBC
:1053D000900DB49F900DA49F800D911D11240895F0
:1053E000A29FB001B39FC001A39F700D811D112426
:1053F000911DB29F700D811D1124911D0895662786
:1054000077270C947B2A1F93FC0199278827BC01DE
:10541000E89411911032E9F3193010F01E30C8F3FE
:105420001B3251F01D3249F4689406C00E94662A6E
:10543000610F711D811D911D119110531A30B0F330
:105440003EF490958095709561957F4F8F4F9F4F5B
:105450001F91089591110C94EA2B803219F0895014
:105460008550C8F70895FB01DC0102C001900D9240
:1054700041505040D8F70895FC018191861721F0E2
:105480008823D9F7992708953197CF010895FB0113
:10549000DC018D91019080190110D9F3990B0895C9
:1054A000FB01DC0101900D920020E1F70895FB0162
:1054B000DC014150504048F001900D920020C9F7A6
:1054C00001C01D9241505040E0F70895592F482FD8
:1054D000372F262F660F771F881F991F660F771F9C
:1054E000881F991F620F731F841F951F660F771FF8
:1054F000881F991F08956F927F928F929F92AF920B
:10550000BF92CF92DF92EF92FF920F931F93CF93B0
:10551000DF93EC017B016115710519F0DB018D93BF
:105520009C938E010F5F1F4F7880872D90E00E9423
:105530002A2A892B11F0E801F4CFBDE27B1205C0C5
:105540000F5F1F4F7980C1E008C0EBE27E1204C0FC
:105550008E010E5F1F4F7980C0E06801F1E0CF1A25
:10556000D10843E050E063E073E0C6010E94ED2BF8
:10557000892BF1F4680122E0C20ED11C45E050E015
:105580006EEF72E0C6010E94ED2B892B21F46801B9
:1055900087E0C80ED11CE114F10419F0D701CD92B7
:1055A000DC92C111FFC060E070E080E89FE703C1BA
:1055B00043E050E06BEF72E0C6010E94ED2B892BB7
:1055C00051F4E114F10409F4F2C00E5F1F4FF7012A
:1055D00011830083ECC0680160E070E0CB0100E063
:1055E00010E0F601D0EDD70DDA3058F52C2F2260FF
:1055F000622E2C2F2870C2FF05C0211128C00F5F1A
:105600001F4F25C0222311F001501109A5E0B0E081
:105610009B01AC010E94E5294B015C01880C991C9F
:10562000AA1CBB1CC501B4016D0F711D811D911D0C
:105630006839A9E97A078A07A9E19A0740F0C660A4
:1056400005C0DE3F51F4C3FD44C0C8606C2EBFEFFF
:10565000CB1ADB0A7080C62DC4CF2D2F2F7D2531AC
:10566000C1F540814D3211F4C06106C04B3221F0CA
:10567000319621E030E006C03296D60111964C9169
:1056800022E030E0A0EDA40FAA3018F0E21BF30BEB
:1056900020C040E050E04038BCE05B075CF49A0179
:1056A000220F331F220F331F420F531F440F551F6A
:1056B0004A0F511D3196DF0111972C91A0EDA20FD9
:1056C000AA3048F3C4FF03C0519541955109040F16
:1056D000151FC1FF07C0E114F10421F03197D70174
:1056E000ED93FC930E945728C370C33019F06B01EF
:1056F0007C0106C06B017C01F7FAF094F7F8F09496
:1057000020E030E0A901C701B6010E94AA27882342
:1057100009F445C017FF06C0119501951109CAE1AA
:10572000D3E002C0C2E3D3E05E01B8E1AB1AB10836
:105730004601BE2DAF2D90E2E92EF12C0E151F056E
:1057400084F0FE012591359145915491B4018B2F40
:105750009A2F0E940E294B01B82FA92F0E191F094D
:10576000EDCF2497F594E794CA15DB0539F764016A
:10577000EB2EFA2E8E2D880F8F2D881F8F3F49F02C
:1057800020E030E0A901C701B6010E94AA278111DB
:1057900006C082E290E090936D0780936C07C7018A
:1057A000B60109C060E070E080E89FEF04C060E0EF
:1057B00070E080EC9FE7DF91CF911F910F91FF90F8
:1057C000EF90DF90CF90BF90AF909F908F907F90A1
:1057D0006F900895992788270895FB01DC014150B7
:1057E000504088F08D9181341CF08B350CF4805E34
:1057F000659161341CF06B350CF4605E861B6111A1
:0E58000071F3990B0895881BFCCFF894FFCF2D
:10580E007800B400C8002602C2010040064400C061
:10581E000D4400000041000050412300140014000C
:10582E00FA00B80B5F011405BC0265004700530374
:10583E0001FF00006E078000456E64204D6F746F8F
:10584E007273205365747570004669726D7761725C
:10585E00653A002E00436F6E74726F6C5F52617406
:10586E00653A00456E636F646572315F6D61783ABB
:10587E0000456E636F646572325F6D61783A004504
:10588E006E636F646572335F6D61783A00456E6466
:10589E0020535049205365747570005365747570AC
:1058AE0020436F6D706C6574656421002C0072006E
:1058BE00300031003200000000000013D0127412CC
:1058CE007C1290129F126E616E00696E66006F768A
:1058DE00660000000000842192182D2159213D21DF
:0258EE0079211E
:00000001FF
