:100000000C949E010C94CF010C94CF010C94CF0161
:100010000C94CF010C94CF010C94CF010C94CF0120
:100020000C94CF010C94CF010C94CF010C94CF0110
:100030000C94CF010C94F4210C94CF010C94CF01BB
:100040000C94CF010C94C80D0C94CF010C94CF01EB
:100050000C94E90F0C94CF010C94CF010C9463160F
:100060000C94CF010C94201B0C94101C0C94CF0109
:100070000C94CF010C94CF010C94CF010C94CF01C0
:100080000C94F60D0C94CF010C94CF010C94CF017D
:100090000C94541B0C944F1C0C94CF010C947314AF
:1000A0000C94CF010C94CF010C94240E0C94CF012E
:1000B0000C94CF010C94CF010C94CF010C94520EF0
:1000C0000C94CF010C94CF010C94CF010C94881B9D
:1000D0000C948E1C0C94CF010C94BC1B0C94CD1C66
:1000E0000C94CF01B915BC15AF15B315F315C01598
:1000F000C415CA15CE15D215D815DC15E015F315A3
:10010000E615EA15EE15AF17B417B917C3173C1863
:10011000CD17D517DD17E717F117FB170A181418B5
:100120003C181E18281832180C94CD170C949E1ADF
:100130000C94B9150C949A120C94D5170C94E615DE
:100140000C943C180C94FB170C94D1010C94751A68
:100150000C94EF1B0C94B9170C94AA220C94EA157A
:100160000C94CE150C940A180C9414180C94DD17EA
:100170000C9483130C94DC150C948D1D0C9428188E
:100180000C94D8150C94B3150C94BC150C94F31561
:100190000C94EE150C94F1170C94BE120C94D2151D
:1001A0000C949B120C94AF170C94BE1A0C94C015AF
:1001B0000C94CA120C94C91A0C94F7120C94B4172C
:1001C0000C94C2030C9470120C9432180C94E71720
:1001D0000C94AF150C94E0150C94CA150C948B126A
:1001E0000C94C4150C9478120C94851A0C94C317B3
:1001F0000C941E180000090A02080B0C0D070603D8
:1002000004010000000000000000000000000000E9
:1002100000000000000000000000000000000000DE
:1002200011100F000000000000000000000000009E
:100230000000000000000000000001021020200863
:100240000810204010204080020102010804020131
:1002500001020408102040808040201008040201A0
:1002600080040201804020100804020108040201F9
:100270000102040810204080010204081020408080
:1002800005050505070508080808020202020A0A12
:100290000808040404040101010101010101030330
:1002A000030303030303040707070C0C0C0C0C0CDB
:1002B0000C0C0202020206060606060606060B0BD8
:1002C0000B0B0B0B0B0B00002200250028002B0052
:1002D0002E003100340002010000050108010B016D
:1002E00000002100240027002A002D0030003300E8
:1002F00001010000040107010A01024E414E494E6E
:10030000495459494E46CDCCCC3D0AD7233C17B76A
:10031000D13877CC2B329595E6241FB14F0A0000D7
:1003200020410000C84200401C4620BCBE4CCA1BF5
:100330000E5AAEC59D74C20383138D1D11241FBEBA
:10034000CFEFD1E2DEBFCDBF00E00CBF12E0A0E0F6
:10035000B2E0EAE7F7E500E00BBF02C007900D92BC
:10036000A63EB107D9F727E0A6EEB2E001C01D9284
:10037000A237B207E1F713E0CCE3D3E000E006C018
:1003800022970109FE010BBF0E94A129C633D107A4
:1003900080E00807A9F70E948C180C94BB2B0C94E2
:1003A000000060E088E00E942D1680E180938100CB
:1003B000089540E050E061E08EE293E00E949810E2
:1003C00061E070E080E090E00E94DC1640E050E0E8
:1003D00062E08EE293E00E94981061E070E080E0BD
:1003E00090E00E94DC1640E050E063E08EE293E093
:1003F0000E94981061E070E080E090E00C94DC16C0
:1004000028E233E04AE253E06CE273E08EE293E0EC
:100410000C94A71161E084E00E94F41561E087E08C
:100420000E94F41561E085E00E94F41561E086E029
:100430000E94F41560E089E30E94F41560E087E310
:100440000E94F41560E086E30E94F41560E088E302
:100450000E94F41560E084E00E942D1660E087E0C1
:100460000E942D1660E070E085E00E94891760E030
:1004700070E086E00E94891769E070E08FE293E007
:100480000E944B0F64EB70E08FE293E00E94840FB8
:100490006CE372E080E095E00C94052360E38EE26B
:1004A00093E00E941B106AE070E080E090E00E9400
:1004B000DC168EE293E00E94F6106AE070E080E0C5
:1004C00090E00E94DC1621E233E042E253E063E276
:1004D00073E08EE293E00E941B126DE472E080E014
:1004E00095E00E94E8224AE050E06091230380E01A
:1004F00095E00E94E72367E572E080E095E00E94C6
:10050000E8224AE050E06091220380E095E00E94FA
:10051000E72367E572E080E095E00E94E8224AE088
:1005200050E06091210380E095E00E94EE2365E0B9
:1005300070E080E090E00E94DC168EE293E00E9482
:100540003F118093200369E572E080E095E00E940E
:10055000E8224AE050E06091200380E095E00E94AC
:10056000EE2365E070E080E090E00E94DC168EE211
:1005700093E00E94981190931F0380931E0367E6F7
:1005800072E080E095E00E94E82260911E03709185
:100590001F034AE050E080E095E00E94C22365E03E
:1005A00070E080E090E00E94DC168EE293E00E9412
:1005B0009D1190931D0380931C0365E772E080E01A
:1005C00095E00E94E82260911C0370911D034AE0AF
:1005D00050E080E095E00E94C22365E070E080E09A
:1005E00090E00E94DC168EE293E00E94A2119093AC
:1005F0001B0380931A0363E872E080E095E00E9499
:10060000E82260911A0370911B034AE050E080E0F9
:1006100095E00E94C22365E070E080E090E00E94D7
:10062000DC1620912E0230912F0240913002509121
:10063000310260913202709133028EE293E00E94A7
:1006400058106FE070E080E090E00E94DC1620918E
:1006500028023091290240912A0250912B02609188
:100660002C0270912D028EE293E00E9478106FE0D0
:1006700070E080E090E00E94DC1661E972E080E0CA
:1006800095E00E94052368EE73E080E090E00C9412
:10069000DC162F923F924F925F926F927F928F92D1
:1006A0009F92AF92BF92CF92DF92EF92FF920F9301
:1006B0001F93CF93DF9300D0CDB7DEB75C014B0122
:1006C0002901FB010481158101501109612C712C54
:1006D000CC24CA94DC2C212C312CE12CF12C7B82F3
:1006E0006A82061517057CF14E145F042CF16A81AD
:1006F0007B81C40149830E94D9192A813B812F5FE4
:100700003F4F4981841741F08A819B81801791076F
:1007100019F0DB82CA820CC09FEFE91AF90A1601B0
:10072000EFEF2E1A3E0A6016710611F43B832A83FE
:100730003901CA80DB80D3CF9601A101B401C50184
:100740000E94251A08C04E145F04B4F36FEA72E0E9
:10075000C5010E940719C5010F900F900F90DF91FE
:10076000CF911F910F91FF90EF90DF90CF90BF90AE
:10077000AF909F908F907F906F905F904F903F9041
:100780002F9008958FE293E00C94800E0E944E0209
:100790000E940A0261E088E00E94F41560E088E0AF
:1007A0000E942D1681ED91E09093C8038093C703BA
:1007B00081E080936F0080E18093810040E052EC03
:1007C00061E070E080E095E00E940C1D80E095E023
:1007D0000E94BE1A40E855E260E070E08EED94E0C1
:1007E0000E940C1D8EED94E00E94BE1A22E330E0C0
:1007F00040E050E060EA7FE085E30E94C31E66E9C6
:1008000070E080E090E00E94DC1622E330E040E0FF
:1008100050E060EA7FE085E30E94C31E6CE271E075
:1008200080E090E00E94DC1624E630E040E050E0FA
:1008300060EA7FE085E30E94C31E6CE271E080E025
:1008400090E00E94DC1624E630E040E050E060EAF0
:100850007FE085E30E94C31E0E94D9016FE972E028
:1008600080E095E00C9405236091070370910803E4
:100870008091090390910A030E94E5274AE050E025
:1008800080E095E00E94BA2360EB72E080E095E0A2
:100890000E94E8224AE050E06091E60280E095E0A4
:1008A0000E94E72360EB72E080E095E00E94E8227E
:1008B0006091FD027091FE024AE050E080E095E018
:1008C0000E94BA2360EB72E080E095E00E94E8228B
:1008D00060912C0370912D034AE050E080E095E098
:1008E0000E94BA2360EB72E080E095E00E94E8226B
:1008F00060912A0370912B034AE050E080E095E07C
:100900000E94BA2360EB72E080E095E00E94E8224A
:1009100060912803709129034AE050E080E095E05F
:100920000E94BA2360EB72E080E095E00E94E8222A
:100930004091F9025091FA026091FB027091FC0221
:1009400022E030E080E095E00E94F02460EB72E06D
:1009500080E095E00E94E8224091F5025091F60275
:100960006091F7027091F80222E030E080E095E0BB
:100970000E94F02460EB72E080E095E00E94E822A3
:100980004091240350912503609126037091270321
:1009900022E030E080E095E00E94F22480E095E0E3
:1009A0000E94BE1A80912C0390912D0390931903FD
:1009B0008093180380912A0390912B03909317033F
:1009C0008093160380912803909129039093150337
:1009D0008093140308954F925F926F927F928F924B
:1009E0009F92AF92BF92CF92DF92EF92FF920F93BE
:1009F0001F93CF93DF93CDB7DEB7C556D1090FB69E
:100A0000F894DEBF0FBECDBF88E30E946417853F18
:100A100091402CF08091E602882309F4D5C788E341
:100A20000E946417843F91402CF48091E60281304B
:100A300009F4D2C70E94AD160091E7021091E802B6
:100A40002091E9023091EA02601B710B820B930B3B
:100A50000091080210910902222717FD2095322FDC
:100A6000061717072807390770F48EE293E00E94F3
:100A7000F6100E94AD166093E7027093E80280932F
:100A8000E9029093EA028EED94E00E94751A18161E
:100A9000190614F54AE06EED74E0CE010B960E9443
:100AA000822220E030E04AE050E0BE016F5F7F4FDD
:100AB000CE010B960E94DB19CE0101960E94B4294B
:100AC00060930703709308038093090390930A03CC
:100AD000CE010B960E9499180E94AD16009110034A
:100AE000109111032091120330911303601B710BBD
:100AF000820B930B0091260210912702222717FDEB
:100B00002095322F061717072807390708F0C6C0A7
:100B100086E30E946417BC01882777FD8095982F93
:100B20000E94182820911602309117024091180255
:100B3000509119020E94CC2820910E0230910F0290
:100B400040911002509111020E947D276093F5029E
:100B50007093F6028093F7029093F80287E30E9465
:100B60006417BC01882777FD8095982F0E9418286C
:100B700020911A0230911B0240911C0250911D02DB
:100B80000E94CC282091120230911302409114024D
:100B9000509115020E947D276093F9027093FA022A
:100BA0008093FB029093FC028EE293E00E948511F9
:100BB00020E030E040E450E40E9414276B017C0107
:100BC0006093240370932503809326039093270357
:100BD00020E030E040EA51E40E94792787FF0EC010
:100BE00020E030E040E850E4C701B6010E94C82888
:100BF000181624F481E080930F0302C010920F03B3
:100C0000C090F902D090FA02E090FB02F090FC0252
:100C100020E030E048E251E4C701B6010E947927A4
:100C200087FF0EC020E030E040EA50E4C701B60183
:100C30000E94C828181624F481E08093F40202C0B0
:100C40001092F402C090F502D090F602E090F70204
:100C5000F090F80220E030E040EB50E4C701B6012C
:100C60000E94792787FF0EC020E030E040E450E486
:100C7000C701B6010E94C828181624F481E08093A9
:100C8000F30202C01092F3020E94AD1660931003AB
:100C90007093110380931203909313030E94AD1677
:100CA0000091030310910403209105033091060382
:100CB000601B710B820B930B009122021091230297
:100CC000222717FD2095322F061717072807390707
:100CD000E8F489E30E946417853F91403CF081E08D
:100CE00090E09093FE028093FD0204C01092FE02F9
:100CF0001092FD020E9434040E94AD16609303031B
:100D00007093040380930503909306030E94AD162D
:100D10000091FF0210910003209101033091020322
:100D2000601B710B820B930B00912002109121022A
:100D3000222717FD2095322F061717072807390796
:100D400060F40E9400020E94AD166093FF0270934F
:100D50000003809301039093020380910F03882383
:100D6000A9F10E94AD16E0912402F09125020091B4
:100D70000B0310910C0320910D0330910E03601BA7
:100D8000710B820B930B8F01222717FD2095322FB9
:100D90000617170728073907C8F4CF01F7FD019692
:100DA0009C0135952795442737FD4095542F60EADF
:100DB0007FE085E30E94C31E0E94AD1660930B0383
:100DC00070930C0380930D0390930E038091F402B3
:100DD0008823A9F10E94AD16E0910C02F0910D025A
:100DE0000091EF021091F0022091F1023091F20295
:100DF000601B710B820B930B8F01222717FD20952F
:100E0000322F0617170728073907C8F4CF01F7FD57
:100E100001969C0135952795442737FD4095542F21
:100E200064E971E185E30E94C31E0E94AD166093E0
:100E3000EF027093F0028093F1029093F20280919E
:100E4000F3028823A9F10E94AD16E0910A02F09105
:100E50000B020091EB021091EC022091ED02309117
:100E6000EE02601B710B820B930B8F01222717FD83
:100E70002095322F0617170728073907C8F4CF0126
:100E8000F7FD01969C0135952795442737FD409540
:100E9000542F68E873E185E30E94C31E0E94AD16DB
:100EA0006093EB027093EC028093ED029093EE025C
:100EB00080E095E00E94751A181619060CF08FC58F
:100EC0004AE060E075E0CE01815A9F4F0E94822285
:100ED0000E94AD166093E7027093E8028093E902E6
:100EE0009093EA0260E070E0CE01815A9F4F0E9429
:100EF000B619FC018081813409F063C061E2CE0142
:100F0000815A9F4F0E94211A9C0142E050E0BE018D
:100F1000615A7F4FCE010B960E94251AA5960EAD01
:100F20001FADA59761E2CE01815A9F4F0E94211A01
:100F3000AC014F5F5F4F9801BE01615A7F4FCE01F8
:100F400001960E94251ACE010B960E946A1A6B0127
:100F50007C01CE0101960E946A1A4B015C01442774
:100F600055274C195D0963E08EE293E00E94DD1085
:100F700061E070E080E090E00E94DC16A60161E094
:100F80008EE293E00E94DD1061E070E080E090E08E
:100F90000E94DC16A40162E08EE293E00E94DD1064
:100FA00061E070E080E090E00E94DC1680E095E077
:100FB0000E94BE1ACE0101960E949918CE010B968E
:100FC000FBC460E070E0CE01815A9F4F0E94B619C9
:100FD000FC0180818335C9F46AE0CE01815A9F4FBC
:100FE0000E94211A9C0141E050E0BE01615A7F4FEE
:100FF000CE0101960E94251ACE0101960E946A1A1E
:101000008FE293E00E94840F1EC260E070E0CE0188
:10101000815A9F4F0E94B619FC018081803739F4B4
:1010200060913202709133026253710911C060E025
:1010300070E0CE01815A9F4F0E94B619FC01808159
:101040008035E9F460913202709133026E5C7F4F1B
:10105000709333026093320220912E0230912F025E
:1010600040913002509131028EE293E00E9458107C
:101070006AE070E080E090E00E94DC169FC460E0CF
:1010800070E0CE01815A9F4F0E94B619FC01808109
:10109000893639F44091300250913102425351095E
:1010A00011C060E070E0CE01815A9F4F0E94B619D6
:1010B000FC018081893479F44091300250913102F1
:1010C0004E5C5F4F509331024093300220912E02CC
:1010D00030912F022BC060E070E0CE01815A9F4F0B
:1010E0000E94B619FC018081843639F420912E02C9
:1010F00030912F022253310911C060E070E0CE011F
:10110000815A9F4F0E94B619FC018081843499F462
:1011100020912E0230912F022E5C3F4F30932F02F0
:1011200020932E02409130025091310260913202A0
:101130007091330299CF60E070E0CE01815A9F4FE9
:101140000E94B619FC018081823639F460912C022C
:1011500070912D026253710911C060E070E0CE0100
:10116000815A9F4F0E94B619FC018081823499F404
:1011700060912C0270912D026E5C7F4F70932D0256
:1011800060932C02209128023091290240912A027A
:1011900050912B025BC060E070E0CE01815A9F4FFE
:1011A0000E94B619FC0180818E3639F440912A02E2
:1011B00050912B024253510911C060E070E0CE0102
:1011C000815A9F4F0E94B619FC0180818E3479F4B8
:1011D00040912A0250912B024E5C5F4F50932B029C
:1011E00040932A0220912802309129022BC060E00E
:1011F00070E0CE01815A9F4F0E94B619FC01808198
:101200008D3639F420912802309129022253310978
:1012100011C060E070E0CE01815A9F4F0E94B61964
:10122000FC0180818D34D9F420912802309129026B
:101230002E5C3F4F309329022093280240912A02CE
:1012400050912B0260912C0270912D028EE293E05E
:101250000E9478106FE070E080E090E00DCF60E0D9
:1012600070E0CE01815A9F4F0E94B619FC01808127
:10127000833279F4E091DE04F091DF040280F3819F
:10128000E02D41E050E062EB72E08EED94E01995C4
:1012900095C360E070E0CE01815A9F4F0E94B6195D
:1012A000FC018081883719F40E94D90187C360E06E
:1012B00070E0CE01815A9F4F0E94B619FC018081D7
:1012C0008B3409F0C3C06AE0CE01815A9F4F0E945F
:1012D000211A9C0142E050E0BE01615A7F4FCE01CD
:1012E00001960E94251ACE0101960E946A1A6B018E
:1012F0007C018B016FEA72E080E095E00E9405239B
:101300006FEA72E080E095E00E9405234AE050E039
:10131000B60180E095E00E94C2236FEA72E080E0AF
:1013200095E00E9405236FEA72E080E095E00E945C
:1013300005231C141D040CF086C080911E029091A0
:101340001F028C159D0534F497FD02C08C0102C06C
:1013500000E010E061E088E00E942D1628EE33E006
:10136000029FC001039F900D129F900D112420E158
:101370002093810010928000AA2797FDA095BA2F94
:1013800003E0880F991FAA1FBB1F0A95D1F700978A
:10139000F1E0AF07B10520F421E02093C90342C07A
:1013A000009728E0A207B10558F422E02093C90372
:1013B00013E0B695A795979587951A95D1F732C002
:1013C000009740E4A407B10558F423E02093C90333
:1013D000F6E0B695A79597958795FA95D1F722C02F
:1013E0000097A10561E0B60740F424E02093C9030B
:1013F000892F9A2FAB2FBB2715C00097A105E4E0DA
:10140000BE0758F425E02093C9037AE0B695A79566
:10141000979587957A95D1F705C085E08093C903A4
:101420008FEF9FEF9093CB038093CA038091CA0301
:101430009091CB0390938700809386008091C9039D
:10144000806180938100CE010196B6C2BE01615ACF
:101450007F4FCE0101960E94351920E030E04CE22A
:10146000BE016F5F7F4FCE01885A9F4F0E94490394
:10147000CE0101960E949918BE01615A7F4FCE019C
:1014800001960E94351921E030E04CE2BE016F5F09
:101490007F4FCE018F5A9F4F0E944903CE01019684
:1014A0000E949918BE01615A7F4FCE0101960E9499
:1014B000351922E030E04CE2BE016F5F7F4FCE0174
:1014C000865B9F4F0E944903CE0101960E949918A6
:1014D000BE01615A7F4FCE0101960E94351923E06B
:1014E00030E04CE2BE016F5F7F4FCE018D5B9F4FBE
:1014F0000E944903CE0101960E949918BE01615ACB
:101500007F4FCE0101960E94351924E030E04CE275
:10151000BE016F5F7F4FCE01CC960E944903CE0182
:1015200001960E949918BE01615A7F4FCE01019623
:101530000E94351925E030E04CE2BE016F5F7F4F1D
:10154000CE01C5960E944903CE0101960E949918CA
:10155000BE01615A7F4FCE0101960E94351926E0E7
:1015600030E04CE2BE016F5F7F4FCE018E960E944D
:101570004903CE0101960E949918BE01615A7F4F1E
:10158000CE0101960E94351927E030E04CE2BE0101
:101590006F5F7F4FCE0187960E944903CE0101966F
:1015A0000E949918BE01615A7F4FCE0101960E9498
:1015B000351928E030E04CE2BE016F5F7F4FCE016D
:1015C00080960E944903CE0101960E949918BE019F
:1015D000615A7F4FCE0101960E94351929E030E013
:1015E0004CE2BE016F5F7F4FCE0149960E944903D6
:1015F000CE0101960E949918BE01615A7F4FCE011B
:1016000001960E9435192AE030E04CE2BE016F5F7E
:101610007F4FCE0142960E944903CE0101960E945F
:101620009918BE01615A7F4FCE0101960E9435196B
:101630002BE030E04CE2BE016F5F7F4FCE010B9696
:101640000E944903CE0101960E949918CE01885A42
:101650009F4F0E946A1A2B013C01CE018F5A9F4F67
:101660000E946A1A6B017C01CE01865B9F4F0E942B
:101670006A1A4B015C0164EB72E0CE018D5B9F4FF7
:101680000E949719882329F0609106027091070241
:101690000DC066EB72E0CE018D5B9F4F0E949719E3
:1016A000882371F060910402709105028FE293E04B
:1016B0000E94840F6CE271E080E090E00E94DC16F2
:1016C000CE01CC960E946A1A8B018091E6028111AC
:1016D0002AC0C2018536910514F084E690E028E620
:1016E00031E0281939092936F1E03F0714F028E6DE
:1016F00031E0A6014536510514F044E650E037FFCD
:1017000002C020E030E04C396FEF560714F44CE98A
:101710005FEFBC0197FF02C060E070E08EE293E0F3
:101720000E94BE1004C08EE293E00E94F61066EBA9
:1017300072E0CE0149960E949719882369F040E033
:1017400050E061E08EE293E00E94981061E070E06A
:1017500080E090E00E94DC1666EB72E0CE014296DB
:101760000E949719882369F040E050E062E08EE221
:1017700093E00E94981061E070E080E090E00E94A9
:10178000DC1666EB72E0CE010B960E949719882357
:1017900069F040E050E063E08EE293E00E94981030
:1017A00061E070E080E090E00E94DC1666EB72E0A1
:1017B000CE01C5960E949719882311F061E009C0F7
:1017C00064EB72E0CE01C5960E949719882321F040
:1017D00060E084E00E942D1668EB72E0CE01C596B1
:1017E0000E949719811107C0CE018E960E946A1A35
:1017F00085E00E94891766EB72E0CE0187960E9411
:101800009719882311F061E009C064EB72E0CE0102
:1018100087960E949719882321F060E087E00E9454
:101820002D1668EB72E0CE0187960E949719811100
:1018300007C0CE0180960E946A1A86E00E9489172E
:10184000101611060CF086C080911E0290911F02A6
:101850008017910734F497FD02C08C0102C000E0AC
:1018600010E061E088E00E942D1628EE33E0029F30
:10187000C001039F900D129F900D112420E1209331
:10188000810010928000AA2797FDA095BA2F63E0EF
:10189000880F991FAA1FBB1F6A95D1F70097E1E037
:1018A000AE07B10520F421E02093C90342C00097A0
:1018B000F8E0AF07B10558F422E02093C90353E0E4
:1018C000B695A795979587955A95D1F732C0009709
:1018D00020E4A207B10558F423E02093C90346E0B1
:1018E000B695A795979587954A95D1F722C0009709
:1018F000A10541E0B40740F424E02093C903892FF7
:101900009A2FAB2FBB2715C00097A10564E0B6073F
:1019100058F425E02093C9032AE0B695A79597953A
:1019200087952A95D1F705C085E08093C9038FEF8D
:101930009FEF9093CB038093CA038091CA03909149
:10194000CB0390938700809386008091C9038061C8
:1019500080938100CE010B960E949918CE01429689
:101960000E949918CE0149960E949918CE0180963E
:101970000E949918CE0187960E949918CE018E96E2
:101980000E949918CE01C5960E949918CE01CC9656
:101990000E949918CE018D5B9F4F0E949918CE012D
:1019A000865B9F4F0E949918CE018F5A9F4F0E94CD
:1019B0009918CE01885A9F4F0E949918CE01815ADA
:1019C0009F4F0E9499180BC08EE293E00E94F61080
:1019D00081E08093E6022EC81092E6022BC8CB5914
:1019E000DF4F0FB6F894DEBF0FBECDBFDF91CF91B2
:1019F0001F910F91FF90EF90DF90CF90BF90AF902D
:101A00009F908F907F906F905F904F900895CF92AE
:101A1000DF92EF92FF920F931F93CF93DF936C01AE
:101A20008B017A01EC01CD5CDC4F888187FF04C01B
:101A3000FB011182108223C02CE02C9DC0012D9D42
:101A4000900D11242881AC01420F511D27FD5A959C
:101A50002091320330E0421753078CF42881AC0107
:101A6000420F511D27FD5A959A01FA01EE0FFF1FF3
:101A7000E20FF31FE95CFC4F208126FD19C088812D
:101A80008F5F88838CE08C9D90018D9D300D11249B
:101A90008881A901480F511D87FD5A958091320315
:101AA00090E048175907B4F488818C303CF112C09B
:101AB0002881820F911D27FD9A95FC01EE0FFF1FD3
:101AC000E80FF91FE95CFC4F808160E08F730E9492
:101AD0002D16D5CFF80180819181049680349C49E0
:101AE00018F480E49CE904C0F80180819181049697
:101AF000F701918380838FEF888341C0F801808153
:101B000091814881B901640F711D47FD7A95AB0140
:101B1000FB01EE0FFF1FE40FF51FE95CFC4F418155
:101B20005281840F951FF701918380838881A901D9
:101B3000480F511D87FD5A95FA01EE0FFF1FE40F64
:101B4000F51FE95CFC4F808186FF19C08881280F52
:101B5000311D87FD3A95F901EE0FFF1FE20FF31FCC
:101B6000E95CFC4F808161E08F73DF91CF911F9121
:101B70000F91FF90EF90DF90CF900C942D16DF9196
:101B8000CF911F910F91FF90EF90DF90CF9008952C
:101B90001F920F920FB60F9211240BB60F922F9334
:101BA0003F934F935F936F937F938F939F93AF93E5
:101BB000BF93EF93FF9348E850E064E870E081E062
:101BC00090E00E94070DFF91EF91BF91AF919F911F
:101BD0008F917F916F915F914F913F912F910F90D6
:101BE0000BBE0F900FBE0F901F9018951F920F9273
:101BF0000FB60F9211240BB60F922F933F934F9372
:101C00005F936F937F938F939F93AF93BF93EF9364
:101C1000FF9348E950E064E970E082E090E00E94C0
:101C2000070DFF91EF91BF91AF919F918F917F91A0
:101C30006F915F914F913F912F910F900BBE0F903D
:101C40000FBE0F901F9018951F920F920FB60F9214
:101C500011240BB60F922F933F934F935F936F9383
:101C60007F938F939F93AF93BF93EF93FF9348EA34
:101C700050E064EA70E083E090E00E94070DFF917D
:101C8000EF91BF91AF919F918F917F916F915F91F4
:101C90004F913F912F910F900BBE0F900FBE0F9061
:101CA0001F9018951F920F920FB60F9211240BB62A
:101CB0000F922F933F934F935F936F937F938F93E5
:101CC0009F93AF93BF93EF93FF9348E251E064E299
:101CD00071E080E090E00E94070DFF91EF91BF91CD
:101CE000AF919F918F917F916F915F914F913F91B4
:101CF0002F910F900BBE0F900FBE0F901F90189555
:101D0000209132032033A0F431E0320F30933203BC
:101D1000FC012083822F90E0FC01EE0FFF1FE80FF3
:101D2000F91FE95CFC4F88EB9BE092838183089567
:101D30002FEFFC0120830895DF92EF92FF920F9323
:101D40001F93CF93DF93EC01D62E7A01890188810E
:101D5000803308F068C061E08D2D0E94F415888101
:101D6000A82FB0E0FD01EE0FFF1FEA0FFB1FE95C9B
:101D7000FC4F2D2D2F739081907C922B908360E2ED
:101D800072E06E197F0977FF02C06D5F7F4F759516
:101D9000679575956795698340E659E0401B510B3F
:101DA00057FF02C04D5F5F4F559547955595479535
:101DB0004A836CE00E9443299CE0899FB001112472
:101DC00020E030E0A901460F571FFA01EE0FFF1F78
:101DD000E40FF51FE95CFC4F908196FD18C02F5F62
:101DE0003F4F2C30310571F790E08130910521F59E
:101DF0001092800082E08093810010928500109202
:101E00008400B19A80916F00826080936F00888116
:101E100090E0FC01EE0FFF1FE80FF91FE95CFC4F9B
:101E20008081806480838881DF91CF911F910F91A1
:101E3000FF90EF90DF9008958230910569F4109241
:101E4000900082E08093910010929500109294008F
:101E500088BB80937100DBCF8330910569F41092C9
:101E6000A00082E08093A1001092A5001092A4002F
:101E700089BB80937200CBCF892B49F61092200149
:101E800082E08093210110922501109224018ABBE7
:101E900080937300BCCF20E639E040E252E00C941E
:101EA0009C0EFC018081803370F5918128E830E040
:101EB000291B310997FD3395220F331F220F331F42
:101EC000621773077CF0928128E532E0291B310903
:101ED00097FD3395220F331F220F331F62177307AD
:101EE0000CF49B014FB7F89490E0FC01EE0FFF1F3C
:101EF000E80FF91FE95CFC4F22503109220F331F14
:101F0000328321834FBF08954F925F926F927F92E9
:101F1000AF92BF92CF92DF92EF92FF920F931F93F7
:101F2000CF93DF93EC01603282E078070CF040C081
:101F300077FD06C0653B71052CF064EB70E002C0D4
:101F400060E070E0898128E830E0281B310987FDD6
:101F50003395220F331F220F331F5901CC24B7FCB6
:101F6000C094DC2C882777FD8095982F2A8148E53E
:101F700052E0421B510927FD5395440F551F440F52
:101F8000551F2A01662457FC6094762C7F926F922D
:101F90005F924F9214EBE12EF12C00E010E020E074
:101FA00030E0A9010E9445180F900F900F900F90FC
:101FB000CE01DF91CF911F910F91FF90EF90DF90B5
:101FC000CF90BF90AF907F906F905F904F900C94A8
:101FD000510F1F920F920FB60F9211240BB60F9252
:101FE0002F933F934F935F936F937F938F939F9321
:101FF000AF93BF93EF93FF93E091C703F091C803B2
:102000001995FF91EF91BF91AF919F918F917F9122
:102010006F915F914F913F912F910F900BBE0F9059
:102020000FBE0F901F901895DC01ED91FC9101906F
:10203000F081E02D199470E075956795FC0160833F
:102040008CEC93E00C944013CF92DF92EF92FF92CE
:102050000F931F93CF93DF931F92CDB7DEB7790114
:102060008CEC93E049830E9463134981642F8CECCC
:1020700093E00E94F712670110E0C6018E199F09D4
:102080008017910744F4F60161916F018CEC93E0A5
:102090000E94F712F2CF8CEC93E00F90DF91CF917A
:1020A0001F910F91FF90EF90DF90CF900C948013D1
:1020B0000F93CF93DF9300D000D0CDB7DEB77983F5
:1020C0006A835B834C833D832E8306E09E012F5FF2
:1020D0003F4F44EFFC0160810E94241026960FB60A
:1020E000F894DEBF0FBECDBFDF91CF910F91089561
:1020F0000F93CF93DF9300D000D0CDB7DEB77983B5
:102100006A835B834C833D832E8306E09E012F5FB1
:102110003F4F4CEEFC0160810E94241026960FB6C2
:10212000F894DEBF0FBECDBFDF91CF910F91089520
:102130000F93CF93DF9300D01F921F92CDB7DEB7DE
:102140009E012F5F3F4F75E0F90111927A95E9F7F3
:102150007AEA7C8375E57D8369835A834B8305E046
:102160004FEEFC0160810E9424100F900F900F90A1
:102170000F900F90DF91CF910F9108950F93CF9310
:10218000DF9300D01F921F92CDB7DEB769835A83C9
:102190004B833C832D8305E09E012F5F3F4F4AEF29
:1021A000FC0160810E9424100F900F900F900F90FF
:1021B0000F90DF91CF910F9108950F93CF93DF93FD
:1021C00000D0CDB7DEB769835A834B8303E09E010D
:1021D0002F5F3F4F45EFFC0160810E9424100F905C
:1021E0000F900F90DF91CF910F9108950F93CF93A0
:1021F000DF931F921F92CDB7DEB72AEA298325E528
:102200002A8302E09E012F5F3F4F4CEFFC0160816B
:102210000E9424100F900F90DF91CF910F9108959D
:102220001F93CF93DF931F92CDB7DEB7162F8CECA1
:1022300093E049830E9463134981642F8CEC93E0FF
:102240000E94F7128CEC93E00E948013612F70E0E3
:1022500041E050E08CEC93E00E9460138CEC93E042
:102260000E947012892B29F08CEC93E00E94781266
:1022700001C08FEF0F90DF91CF911F91089543ED33
:10228000FC0160810C9410110F931F93CF93DF9387
:1022900000D0CDB7DEB7162F19821A828CEC93E0EE
:1022A0004B830E9463134B81642F8CEC93E00E945C
:1022B000F7128CEC93E00E948013612F70E042E0F3
:1022C00050E08CEC93E00E9460138E010F5F1F4F73
:1022D0008CEC93E00E947012892B41F08CEC93E01F
:1022E0000E947812F80181938F01F2CF898190E0EA
:1022F000982F88272A81820F911D0F900F900F90A1
:10230000DF91CF911F910F91089545EDFC01608100
:102310000E944411BC01882777FD8095982F0E9468
:10232000182820E030E040E251E40E947D27089523
:1023300042EDFC0160810C94441141EDFC0160818F
:102340000C94441140EDFC0160810C9444118F9277
:102350009F92AF92BF92CF92DF92EF92FF920F9334
:102360001F93CF93DF9300D000D0CDB7DEB74C01E1
:102370005B016A0179018E010F5F1F4F86E0F80152
:1023800011928A95E9F7F40160818CEC93E00E9448
:10239000631368ED70E08CEC93E00E9414108CECF9
:1023A00093E00E948013F401608170E046E050E009
:1023B0008CEC93E00E9460138CEC93E00E9470120E
:1023C000892B41F08CEC93E00E947812F801819304
:1023D0008F01F2CF898190E0982F88272A81820F80
:1023E000911DF501918380838B8190E0982F882740
:1023F0002C81820F911DF601918380838D8190E065
:10240000982F88272E81820F911DF7019183808359
:1024100026960FB6F894DEBF0FBECDBFDF91CF91E9
:102420001F910F91FF90EF90DF90CF90BF90AF90F2
:102430009F908F900895AF92BF92CF92DF92EF92CC
:10244000FF920F931F93CF93DF9300D0CDB7DEB7EA
:102450008C015B016A01790119821A821B82FC01DD
:1024600060818CEC93E00E9463136EEF70E08CEC63
:1024700093E00E9414108CEC93E00E948013F8010A
:10248000608170E043E050E08CEC93E00E946013C8
:102490008E010F5F1F4F8CEC93E00E947012892B0E
:1024A00041F08CEC93E00E947812F80181938F0147
:1024B000F2CF8981F50180838A81F60180838B8147
:1024C000F70180830F900F900F90DF91CF911F91B4
:1024D0000F91FF90EF90DF90CF90BF90AF90089555
:1024E0008091000490E020910104821B91090895DD
:1024F0002091010480910004281750F4E22FF0E0AD
:10250000EE5FFB4F808190E02F5F209301040895E0
:102510008FEF9FEF0895E091010480910004E81788
:1025200030F4F0E0EE5FFB4F808190E008958FEF94
:102530009FEF08950895E091D803F091D903309763
:10254000E1F030910104209100043217B0F040E036
:10255000242F30E02617370754F4DC01A20FB31FF5
:102560005C91D901AE5FBB4F5C934F5FF1CF10928E
:10257000010460930004CB0119940895E091DA03FB
:10258000F091DB03309729F01092DE031092DD0307
:1025900019940895CF92DF92EF92FF920F931F93B9
:1025A000CF93DF937C01CB018A012091DC032223AE
:1025B00089F0EB016B01C40ED51ECC15DD0569F069
:1025C0006991D701ED91FC910190F081E02DC70157
:1025D0001995F3CF642F0E944014C801DF91CF9169
:1025E0001F910F91FF90EF90DF90CF900895CF93C0
:1025F000DF931F92CDB7DEB769832091DC032223DE
:10260000D1F02091DD03203240F021E030E0FC01E8
:102610003383228380E090E015C08091DE03E82FB1
:10262000F0E0E152FC4F998190838F5F8093DE034D
:102630008093DD0305C061E0CE0101960E94401445
:1026400081E090E00F90DF91CF910895FC0113821B
:10265000128248EE53E060E070E044835583668365
:1026600077838EEB92E0918380830895109201042A
:10267000109200041092DE031092DD030C94871375
:10268000CF93DF93EC01862F0E94A5138EEB92E18E
:102690000E945E148BE992E10E945914CE01DF91F1
:1026A000CF910C943613862F413208F040E262E05D
:1026B00074E00E94A913109201048093000408950D
:1026C00021E00C94531381E08093DC036093FF03BB
:1026D0001092DE031092DD0308950F93062F21E080
:1026E0004091DD036FED73E08091FF030E94ED13D5
:1026F0001092DE031092DD031092DC030F91089517
:1027000061E00C946D138CEC93E00C942613109202
:102710008F0481E080938D0410928C0461E084E149
:102720000E942D1661E085E10E942D16E9EBF0E094
:1027300080818E7F808380818D7F808388E48093F9
:10274000B80085E48093BC000895880F8093BA0098
:102750000895413208F03FC090918F049111FCCF51
:1027600091E090938F0420938D042FEF2093220407
:1027700010926704240F2093660490938E04909126
:102780008E04880F892B80938E0480918C04813075
:1027900041F410928C0480918E048093BB0085ECF0
:1027A00001C085EE8093BC0080918F048130E1F3FD
:1027B00080916704841710F44091670428E634E0A0
:1027C000FB01D9018A2F821B841718F48D91819304
:1027D000F9CF842F089580E008950F93413208F0D7
:1027E00046C090918F049111FCCF92E090938F049A
:1027F00000938D049FEF90932204109267044093FE
:102800006604FB0168E674E0DB019A2F961B9417BF
:1028100018F491919D93F9CF10928E0490918E04AB
:10282000880F892B80938E0480918C04813041F431
:1028300010928C0480918E048093BB0085EC01C0C3
:1028400085EE8093BC00222321F080918F0482309A
:10285000E1F3809122048F3F61F080912204803265
:1028600051F080912204803341F483E007C081E07D
:1028700005C080E003C082E001C084E00F910895AC
:10288000613298F420918F04243089F460934404D9
:10289000FC0186E494E0DC012A2F281B261718F49B
:1028A00021912D93F9CF80E0089581E0089582E091
:1028B00008959093890480938804089590938B04DD
:1028C00080938A04089585ED8093BC008091BC00BC
:1028D00084FDFCCF10928F04089585EC8093BC009A
:1028E00010928F0408951F920F920FB60F92112429
:1028F0000BB60F922F933F934F935F936F937F93FA
:102900008F939F93AF93BF93EF93FF938091B90001
:10291000887F803609F49CC068F5883209F45BC072
:1029200090F4803109F454C038F4882309F4F5C0D8
:10293000883009F44DC0F5C0883109F44CC08032AC
:1029400009F45DC0EEC0803409F468C048F48033F7
:1029500009F455C0883309F0E4C080932204A8C06C
:10296000803509F44FC0883509F45DC0883409F01A
:10297000D8C0D5C0883909F4C6C0A8F4883709F48E
:1029800067C038F4883609F463C0803709F460C042
:10299000C8C0883809F4B7C0803909F45FC08038EE
:1029A00009F0BFC05BC0803B09F485C038F4803AB1
:1029B00009F466C0883A09F47EC0B3C0803C09F4CB
:1029C000A6C0883C09F4A3C0883B09F489C0A9C00B
:1029D00080918E0410C090916704809166049817CE
:1029E00070F5E091670481E08E0F80936704F0E05A
:1029F000E859FB4F80818093BB0085EC85C08093B4
:102A000022048DC0E091670481E08E0F80936704FB
:102A10008091BB00F0E0E859FB4F80839091670400
:102A2000809166046DC0E091670481E08E0F809311
:102A300067048091BB00F0E0E859FB4F80838091F0
:102A40008D0481116CC081E080938C0484EA60C0A5
:102A500083E080938F0410922304CFCF80912304CE
:102A6000803208F050C0E091230481E08E0F809303
:102A700023048091BB00F0E0EC5DFB4F8083BDCF71
:102A800080912304803230F4E0912304F0E0EC5D87
:102A9000FB4F10820E9463146091230470E0E09168
:102AA0008804F091890484E294E01995109223043B
:102AB0000E946D1436C084E080938F041092450408
:102AC00010924404E0918A04F0918B04199580914E
:102AD0004404811105C081E08093440410924604AF
:102AE000E091450481E08E0F80934504F0E0EA5BBD
:102AF000FB4F80818093BB009091450480914404FA
:102B0000981708F47ACF85E88093BC000AC085EC5A
:102B10008093BC0010928F0404C0109222040E9483
:102B20006314FF91EF91BF91AF919F918F917F912E
:102B30006F915F914F913F912F910F900BBE0F902E
:102B40000FBE0F901F90189590E0FC013197E13176
:102B5000F10508F048C0EE58FF4F0C949029809181
:102B600080008F7703C0809180008F7D80938000EC
:102B7000089584B58F7702C084B58F7D84BD089594
:102B80008091B0008F7703C08091B0008F7D8093DB
:102B9000B0000895809190008F7707C080919000D9
:102BA0008F7D03C080919000877F8093900008956F
:102BB0008091A0008F7707C08091A0008F7D03C017
:102BC0008091A000877F8093A000089580912001CC
:102BD0008F7707C0809120018F7D03C080912001F5
:102BE000877F809320010895CF93DF9390E0FC01CD
:102BF000E65CFD4F2491FC01E058FD4F8491882351
:102C000049F190E0880F991FFC01E052FD4FA5911A
:102C1000B4918A539D4FFC01C591D4919FB7611126
:102C200008C0F8948C91209582238C93888182230C
:102C30000AC0623051F4F8948C91322F309583237E
:102C40008C938881822B888304C0F8948C91822B8A
:102C50008C939FBFDF91CF9108950F931F93CF93D4
:102C6000DF931F92CDB7DEB7282F30E0F901EC508B
:102C7000FE4F8491F901E65CFD4F1491F901E05893
:102C8000FD4F04910023C9F0882321F069830E943D
:102C9000A4156981E02FF0E0EE0FFF1FEA53FD4F0E
:102CA000A591B4919FB7F8948C91611103C01095D0
:102CB000812301C0812B8C939FBF0F90DF91CF9117
:102CC0001F910F9108951F920F920FB60F9211242A
:102CD0002F933F938F939F93AF93BF9380919104D2
:102CE00090919204A0919304B09194043091900437
:102CF00023E0230F2D3720F40196A11DB11D05C03F
:102D000026E8230F0296A11DB11D20939004809305
:102D1000910490939204A0939304B09394048091AF
:102D2000950490919604A0919704B091980401960F
:102D3000A11DB11D8093950490939604A0939704D0
:102D4000B0939804BF91AF919F918F913F912F9134
:102D50000F900FBE0F901F9018952FB7F8946091A9
:102D600091047091920480919304909194042FBFE8
:102D700008953FB7F8948091950490919604A0919E
:102D80009704B091980426B5A89B05C02F3F19F071
:102D90000196A11DB11D3FBF6627782F892F9A2F5D
:102DA000620F711D811D911D42E0660F771F881F04
:102DB000991F4A95D1F70895CF92DF92EF92FF9233
:102DC000CF93DF936B017C010E94B916EB01C11414
:102DD000D104E104F10479F00E94B9166C1B7D0B5B
:102DE000683E7340A0F381E0C81AD108E108F108F9
:102DF000C851DC4FECCFDF91CF91FF90EF90DF9087
:102E0000CF900895789484B5826084BD84B5816044
:102E100084BD85B5826085BD85B5816085BDEEE6E2
:102E2000F0E0808181608083E1E8F0E010828081C1
:102E300082608083808181608083E0E8F0E080812F
:102E400081608083E1EBF0E0808184608083E0EB4F
:102E5000F0E0808181608083E1E9F0E08081826040
:102E60008083808181608083E0E9F0E080818160FF
:102E70008083E1EAF0E080818260808380818160EC
:102E80008083E0EAF0E0808181608083E1E2F1E02C
:102E9000808182608083808181608083E0E2F1E0D4
:102EA000808181608083EAE7F0E0808184608083B4
:102EB000808182608083808181608083808180685E
:102EC00080831092C1000895863308F086532091C4
:102ED0007B00982F9870277F922B90937B008770B0
:102EE0002091340290E4299F90011124822B809339
:102EF0007C0080917A00806480937A0080917A00CF
:102F000086FDFCCF809178002091790090E0922B93
:102F100008951F93CF93DF93182FEB0161E00E9478
:102F2000F415209711F460E004C0CF3FD10539F4C7
:102F300061E0812FDF91CF911F910C942D16E12F2D
:102F4000F0E0EC50FE4F449150E0FA013197E1314E
:102F5000F10508F091C0ED57FF4F0C94902984B50E
:102F6000806884BDC7BD8DC084B5806284BDC8BD86
:102F700088C080918000806880938000D093890011
:102F8000C09388007EC08091800080628093800022
:102F9000D0938B00C0938A0074C08091B000806889
:102FA0008093B000C093B3006CC08091B000806289
:102FB0008093B000C093B40064C08091900080689A
:102FC00080939000D0939900C09398005AC080914C
:102FD0009000806280939000D0939B00C0939A00F1
:102FE00050C080919000886080939000D0939D00A5
:102FF000C0939C0046C08091A00080688093A00090
:103000008091A0008F7B8093A000D093A900C093F3
:10301000A80037C08091A00080628093A000D09368
:10302000AB00C093AA002DC08091A000886080935F
:10303000A000D093AD00C093AC0023C080912001CC
:10304000806880932001D0932901C093280119C082
:1030500080912001806280932001D0932B01C09346
:103060002A010FC080912001886080932001D093B5
:103070002D01C0932C0105C0C038D1050CF058CFEC
:1030800052CFDF91CF911F9108954F925F926F922F
:103090007F92AF92BF92CF92DF92EF92FF920F9307
:1030A0001F93CF93DF93CDB7DEB729013A01621B9F
:1030B000730B840B950B2A893B894C895D892A19EE
:1030C0003B094C095D092A8B3B8B4C8B5D8B9B012B
:1030D000AC016A897B898C899D890E943329E41817
:1030E000F50806091709A80197010E9471292A0D00
:1030F0003B1D4C1D5D1DCA01B901DF91CF911F9190
:103100000F91FF90EF90DF90CF90BF90AF907F90A6
:103110006F905F904F9008950E9402170E94C6031F
:10312000CFEEDBE10E94EB042097E1F30E94EF1B5E
:10313000F9CFFC01808191810C949C25CF93DF9382
:10314000EC0188819981009711F00E949C251982D9
:1031500018821D821C821B821A82DF91CF910895F2
:103160000F931F93CF93DF93EC018B016F5F7F4F22
:10317000888199810E942B26009731F0998388835A
:103180001B830A8381E001C080E0DF91CF911F9112
:103190000F910895CF93DF93EC0188819981892B5A
:1031A00029F08A819B818617970760F4CE010E94DF
:1031B000B018882341F08C819D81892B19F4E88116
:1031C000F981108281E0DF91CF910895EF92FF9213
:1031D0000F931F93CF93DF93EC017B018A01BA0118
:1031E0000E94CA18811104C0CE010E949E1807C017
:1031F0001D830C83B701888199810E94042ACE0126
:10320000DF91CF911F910F91FF90EF900895FC01F6
:103210001182108213821282158214821682611525
:10322000710559F0FB0101900020E9F7AF01415011
:103230005109461B570B0C94E6180895CF93DF9362
:10324000EC01FB018617970761F0608171816115C0
:10325000710529F0448155810E94E61802C00E9440
:103260009E18CE01DF91CF910895FC01118210824A
:10327000138212821582148216820C941E19CF9327
:10328000DF93EC016115710561F0FB0101900020F5
:10329000E9F7AF0141505109461B570B0E94E61850
:1032A00002C00E949E18CE01DF91CF910895EF9247
:1032B000FF920F931F93CF93DF93EC017B010C815F
:1032C0001D816115710511F480E016C0411551058D
:1032D00091F0040F151FB8010E94CA188823A1F3AA
:1032E000288139818C819D81B701820F931F0E94B3
:1032F000042A1D830C8381E0DF91CF911F910F91F0
:10330000FF90EF900895CF93DF931F921F92CDB758
:10331000DEB769831A8241E050E0BE016F5F7F4FE4
:103320000E9457190F900F90DF91CF910895FC01E3
:1033300024813581232B31F421E061157105A1F041
:10334000FB0108C0FC01808191816115710531F498
:1033500021E0FC018081882339F005C00E94FB290F
:1033600021E0892B09F020E0822F0895FC0184815F
:1033700095816817790720F480819181009729F45D
:103380001092990489E994E00895860F971F089593
:10339000FC01248135816217730748F48081918193
:1033A000009729F0FC01E60FF71F8081089580E067
:1033B00008950C94C8190F931F93CF93DF93EB01DB
:1033C00041155105E9F02097D9F0FC016481758120
:1033D00026173707A0F4621B730B8A0101501109ED
:1033E0006017710708F48B01FC0160817181620F25
:1033F000731FA801CE010E940B2AC00FD11F188293
:10340000DF91CF911F910F910895CF93DF93FC012E
:10341000848195814817590778F4C081D181772735
:1034200067FD7095CE01840F951F0E94F0290097CB
:1034300019F08C1B9D0B02C08FEF9FEFDF91CF9196
:10344000089540E050E00C94051ABF92CF92DF92AD
:10345000EF92FF920F931F93CF93DF936C017B0149
:10346000EA0189012417350720F48D2FE901042F83
:10347000182F6FEA72E0C6010E940719D70114964F
:103480008D919C9115978C179D07C8F08017910717
:1034900008F48C01D701ED91FC911197E00FF11F19
:1034A000B08010826D917C916C0F7D1FC6010E94CF
:1034B0003F19D701ED91FC91E00FF11FB082C601D9
:1034C000DF91CF911F910F91FF90EF90DF90CF9000
:1034D000BF900895FC0180819181009711F00C94B8
:1034E000B82960E070E0CB010895FC0124853585A2
:1034F000F901E05CFF4F808191813296208131811A
:10350000821B930B8F7399270895FC018485958501
:10351000FC01E05CFF4F4081518132962081318176
:103520004217530741F00190F081E02DE80FF91F99
:10353000808190E008958FEF9FEF0895FC018485CE
:103540009585FC01E05CFF4F4081518132962081DE
:1035500031814217530779F0A081B181A80FB91FBB
:103560008C91208131812F5F3F4F2F73332731831F
:10357000208390E008958FEF9FEF0895FC0181A1D3
:10358000882329F0A489B5898C9186FFFBCF11A2ED
:103590000895CF93DF93FC0126853785D901A05C80
:1035A000BF4F8D919C91119701968F739927E901D7
:1035B000CE5BDF4F4881598184179507D9F30D9071
:1035C000BC91A02DA20FB31F6C93A685B785A05CFC
:1035D000BF4F11969C938E93A689B7892C9181E059
:1035E00090E0078C02C0880F991F0A94E2F7282BFD
:1035F0002C9381E081A30488F589E02D808180648B
:10360000808381E090E0DF91CF910895FB01E05C41
:10361000FF4F208131812F5F3F4F2F733327DB0115
:10362000AE5BBF4F4D915C912417350739F0A081F7
:10363000B181A60FB71F8C9331832083089508951D
:103640001F920F920FB60F9211240BB60F922F9369
:103650003F934F935F936F937F938F939F93AF931A
:10366000BF93EF93FF938091C00082FD07C08091CC
:10367000C6006EEF76E00E94061B02C08091C60075
:10368000FF91EF91BF91AF919F918F917F916F913A
:103690005F914F913F912F910F900BBE0F900FBEF6
:1036A0000F901F90189508951F920F920FB60F92CA
:1036B00011240BB60F922F933F934F935F936F9309
:1036C0007F938F939F93AF93BF93EF93FF938091DB
:1036D000C80082FD07C08091CE0066E776E00E94B8
:1036E000061B02C08091CE00FF91EF91BF91AF9178
:1036F0009F918F917F916F915F914F913F912F910A
:103700000F900BBE0F900FBE0F901F90189508954D
:103710001F920F920FB60F9211240BB60F922F9398
:103720003F934F935F936F937F938F939F93AF9349
:10373000BF93EF93FF938091D00082FD07C08091EB
:10374000D6006EEE75E00E94061B02C08091D60086
:10375000FF91EF91BF91AF919F918F917F916F9169
:103760005F914F913F912F910F900BBE0F900FBE25
:103770000F901F90189508951F920F920FB60F92F9
:1037800011240BB60F922F933F934F935F936F9338
:103790007F938F939F93AF93BF93EF93FF9380910A
:1037A000300182FD07C08091360166E675E00E9417
:1037B000061B02C080913601FF91EF91BF91AF913E
:1037C0009F918F917F916F915F914F913F912F9139
:1037D0000F900BBE0F900FBE0F901F90189580E0BA
:1037E00095E00E94751A892B11F00E941F1B8EED27
:1037F00094E00E94751A892B11F00E94531B8CEBE8
:1038000094E00E94751A892B11F00E94871B8AE9A7
:1038100094E00E94751A892B11F00C94BB1B08953B
:103820001F920F920FB60F9211240BB60F922F9387
:103830003F938F939F93EF93FF932091FA063091DC
:10384000FB068091FC069091FD062817390731F49C
:103850008091C1008F7D8093C10014C0E091FC066F
:10386000F091FD06E654F94F20818091FC0690917D
:10387000FD0601968F7399279093FD068093FC06B1
:103880002093C600FF91EF919F918F913F912F91CF
:103890000F900BBE0F900FBE0F901F9018951F92A8
:1038A0000F920FB60F9211240BB60F922F933F93E6
:1038B0008F939F93EF93FF9320917206309173063D
:1038C00080917406909175062817390731F480911C
:1038D000C9008F7D8093C90014C0E0917406F091F7
:1038E0007506EE5CF94F2081809174069091750603
:1038F00001968F7399279093750680937406209391
:10390000CE00FF91EF919F918F913F912F910F905A
:103910000BBE0F900FBE0F901F9018951F920F9225
:103920000FB60F9211240BB60F922F933F938F93E4
:103930009F93EF93FF932091EA053091EB058091DF
:10394000EC059091ED052817390731F48091D100ED
:103950008F7D8093D10014C0E091EC05F091ED05CE
:10396000E655FA4F20818091EC059091ED05019686
:103970008F7399279093ED058093EC052093D600E3
:10398000FF91EF919F918F913F912F910F900BBEDF
:103990000F900FBE0F901F9018951F920F920FB6A9
:1039A0000F9211240BB60F922F933F938F939F93F7
:1039B000EF93FF9320916205309163058091640538
:1039C000909165052817390731F4809131018F7D79
:1039D0008093310114C0E0916405F0916505EE5DBE
:1039E000FA4F2081809164059091650501968F734F
:1039F0009927909365058093640520933601FF9184
:103A0000EF919F918F913F912F910F900BBE0F904F
:103A10000FBE0F901F901895CF92DF92EF92FF92FA
:103A2000CF93DF93EC016A017B01411581EE5807CA
:103A300061057105F9F0EC89FD8981E090E008A04D
:103A400002C0880F991F0A94E2F7808360E079E052
:103A50008DE390E0A70196010E944F292150310982
:103A6000410951095695479537952795211580E1CC
:103A7000380798F0EC89FD89108260E874E88EE1DF
:103A800090E0A70196010E944F2921503109410978
:103A900051095695479537952795E889F9893083D7
:103AA000EA89FB89208319A2EE89FF89408181E0A0
:103AB00090E09C010C8C02C0220F331F0A94E2F7A5
:103AC000422B4083EE89FF8940819C010D8C02C00E
:103AD000220F331F0A94E2F7422B4083EE89FF89BD
:103AE00040819C010E8C02C0220F331F0A94E2F722
:103AF000422B4083EE89FF8920810F8C02C0880F02
:103B0000991F0A94E2F7809582238083DF91CF91F9
:103B1000FF90EF90DF90CF900895CF931092030520
:103B20001092020588EE93E0A0E0B0E080930405D7
:103B300090930505A0930605B09307052EEC32E09F
:103B400030930105209300054EEF56E050930D058C
:103B500040930C054AEB56E050930F0540930E0539
:103B600045EC50E0509311054093100544EC50E0B3
:103B7000509313054093120540EC50E05093150507
:103B80004093140541EC50E05093170540931605FF
:103B900042EC50E0509319054093180546EC50E074
:103BA00050931B0540931A05C4E0C0931C05F3E035
:103BB000F0931D05E7E0E0931E0575E070931F0587
:103BC00061E0609320051092E1041092E00480937C
:103BD000E2049093E304A093E404B093E5043093EB
:103BE000DF042093DE0446E756E05093EB04409355
:103BF000EA0442E356E05093ED044093EC044DECAC
:103C000050E05093EF044093EE044CEC50E050939E
:103C1000F1044093F00448EC50E05093F3044093D7
:103C2000F20449EC50E05093F5044093F4044AEC5C
:103C300050E05093F7044093F6044EEC50E050935C
:103C4000F9044093F804C093FA04F093FB04E09362
:103C5000FC047093FD046093FE041092BF04109264
:103C6000BE048093C0049093C104A093C204B09397
:103C7000C3043093BD042093BC044EEE55E0509332
:103C8000C9044093C8044AEA55E05093CB044093DA
:103C9000CA0445ED50E05093CD044093CC0444ED6C
:103CA00050E05093CF044093CE0440ED50E0509349
:103CB000D1044093D00441ED50E05093D30440939D
:103CC000D20442ED50E05093D5044093D40446ED25
:103CD00050E05093D7044093D604C093D804F09397
:103CE000D904E093DA047093DB046093DC0410924F
:103CF0009D0410929C0480939E0490939F04A09333
:103D0000A004B093A10430939B0420939A0486E608
:103D100095E09093A7048093A60482E295E09093A7
:103D2000A9048093A80485E391E09093AB04809369
:103D3000AA0484E391E09093AD048093AC0480E303
:103D400091E09093AF048093AE0481E391E090936F
:103D5000B1048093B00482E391E09093B304809324
:103D6000B20486E391E09093B5048093B404C093C9
:103D7000B604F093B704E093B8047093B904609369
:103D8000BA04CF9108953F924F925F926F927F92C3
:103D90008F929F92AF92BF92CF92DF92EF92FF925B
:103DA0000F931F93CF93DF9300D01F92CDB7DEB751
:103DB0008B0129013A0190913502981721F09F3F1C
:103DC00009F0B6C204C0EAEFF2E0349004C1809377
:103DD0003502EAEFF2E0E491EF3F09F4A9C2E230E4
:103DE00009F480C074F5EE2309F45BC0E13009F0FA
:103DF000F1C0109280001092810090918100986033
:103E00009093810090918100916090938100282F80
:103E100030E0F901E058FD4FE491F0E0EE0FFF1FB4
:103E2000EA53FD4F459154915093600740935F07CB
:103E3000F901E65CFD4F249120935E07332433940F
:103E4000CCC0E43009F49EC00CF474C0E53009F035
:103E5000C1C010922001109221019091210198601F
:103E60009093210190912101916090932101282F3D
:103E700030E0F901E058FD4FE491F0E0EE0FFF1F54
:103E8000EA53FD4F459154915093440740934307A3
:103E9000F901E65CFD4F24912093420755E0352E51
:103EA0009CC014BC15BC94B5926094BD95B591604E
:103EB00095BD282F30E0F901E058FD4FE491F0E086
:103EC000EE0FFF1FEA53FD4F459154915093670742
:103ED00040936607F901E65CFD4F24912093650746
:103EE000312C7BC01092B0001092B1009091B000C4
:103EF00092609093B0009091B10091609093B10066
:103F0000282F30E0F901E058FD4FE491F0E0EE0F8A
:103F1000FF1FEA53FD4F4591549150935907409329
:103F20005807F901E65CFD4F24912093570722E0E2
:103F3000322E53C0109290001092910090919100F7
:103F4000986090939100909191009160909391006E
:103F5000282F30E0F901E058FD4FE491F0E0EE0F3A
:103F6000FF1FEA53FD4F45915491509352074093E0
:103F70005107F901E65CFD4F249120935007B3E00F
:103F80003B2E2BC01092A0001092A1009091A10096
:103F900098609093A1009091A10091609093A100EE
:103FA000282F30E0F901E058FD4FE491F0E0EE0FEA
:103FB000FF1FEA53FD4F4591549150934B07409397
:103FC0004A07F901E65CFD4F24912093490774E00C
:103FD000372E03C03E2E37FCABC161E00E94F415C2
:103FE0004801A12CB12C832D8D7F09F0C0C060E069
:103FF00072E18AE790E0A50194010E94712929836A
:104000003A834B835C8369017A0181E0C81AD10845
:10401000E108F1089FEFC916D104E104F10409F0A9
:1040200008F49AC060E472E48FE090E0A501940186
:104030000E94712969017A01E1E0CE1AD108E108F4
:10404000F108F2E03F1219C08FEFC816D104E10465
:10405000F10409F008F487C060E970ED83E090E0B6
:10406000A50194010E94712969017A0191E0C91AA0
:10407000D108E108F10883E001C082E0EFEFCE163D
:10408000D104E104F10409F008F467C068E478EEB3
:1040900081E090E0A50194010E94712969017A01F3
:1040A000F1E0CF1AD108E108F1083320E1F082E015
:1040B00038121BC09FEFC916D104E104F10409F0C6
:1040C00008F434C164E274EF80E090E0A50194014B
:1040D0000E94712969017A01E1E0CE1AD108E10854
:1040E000F10885E003C083E001C084E0FFEFCF1654
:1040F000D104E104F10489F180F162E17AE780E022
:1041000090E0A50194010E94712969017A0181E082
:10411000C81AD108E108F108311002C084E001C0DA
:1041200086E09FEFC916D104E104F104B1F0A8F0D4
:10413000C980DA80EB80FC809AE0F594E794D7940C
:10414000C7949A95D1F7E1E0CE1AD108E108F108B9
:10415000332031F087E008C081E0332011F004C043
:1041600085E085BD52C082E08093B1004EC060E022
:1041700072E18AE790E0A50194010E94712969012A
:104180007A01F1E0CF1AD108E108F108C114D10495
:1041900081E0E806F10488F068E478EE81E090E0E0
:1041A000A50194010E94712969017A0191E0C91A5F
:1041B000D108E108F10893E001C091E0E1E03E128E
:1041C00007C080918100887F892B809381001DC06A
:1041D000F3E03F1207C080919100887F892B809384
:1041E000910013C084E0381207C08091A100887F3D
:1041F000892B8093A10009C0E5E03E1206C08091A2
:104200002101887F892B809321014114510461048D
:10421000710471F0D801AA0FBB1FA30192010E9483
:10422000962928EE33E040E050E00E944F2903C079
:104230002FEF3FEFA901F2E03F1609F443C0F31559
:10424000BCF0332081F181E0381272C0D092890035
:10425000C092880020936107309362074093630700
:104260005093640780916F00826080936F0060C0FC
:1042700094E0391609F448C03916A4F1E5E03E127D
:1042800057C0D0922901C09228012093450730934E
:104290004607409347075093480780917300826018
:1042A0008093730045C0C7BC2093680730936907AB
:1042B00040936A0750936B0780916E0082608093F1
:1042C0006E0036C0C092B30020935A0730935B074C
:1042D00040935C0750935D078091700082608093EB
:1042E000700026C0D0929900C09298002093530786
:1042F00030935407409355075093560780917100AF
:1043000082608093710014C0D092A900C092A8006E
:1043100020934C0730934D0740934E0750934F071F
:104320008091720082608093720002C084E01CCF92
:104330000F900F900F900F90DF91CF911F910F91E1
:10434000FF90EF90DF90CF90BF90AF909F908F90B5
:104350007F906F905F904F903F9008958230A9F0CA
:1043600028F4882349F0813051F00895843009F110
:10437000E8F0853009F1089510926E00089580915B
:104380006F008D7F80936F000895809170008D7F06
:104390008093700081E08093B0008091B100887FAD
:1043A00084608093B1001092B30008951092710060
:1043B0000895109272000895109273000895CF939B
:1043C000C82F809135028C1307C0EAEFF2E0849188
:1043D0009FEF9093350201C08FEF0E94AE2160E005
:1043E0008C2FCF910C942D161F920F920FB60F9217
:1043F00011240BB60F922F933F934F935F936F93BC
:104400007F938F939F93AF93BF93EF93FF9380918D
:104410005A0790915B07A0915C07B0915D07892BCB
:104420008A2B8B2B51F190915707E0915807F0910F
:10443000590780818927808380915A0790915B0773
:10444000A0915C07B0915D07181619061A061B06A5
:10445000C4F480915A0790915B07A0915C07B091DA
:104460005D070197A109B10980935A0790935B07F3
:10447000A0935C07B0935D0704C0809135020E9451
:10448000DF21FF91EF91BF91AF919F918F917F912C
:104490006F915F914F913F912F910F900BBE0F90B5
:1044A0000FBE0F901F9018950F931F93CF93DF931C
:1044B000EC010E94AD16688779878A879B87E8811F
:1044C000F9810680F781E02DCE01199597FF15C07F
:1044D0000E94AD16088519852A853B85601B710BE6
:1044E000820B930B0C811D812E813F816017710718
:1044F0008207930720F38FEF9FEFDF91CF911F91FA
:104500000F910895EF92FF920F931F93CF93DF9334
:10451000EC018B01E42E6FEA72E00E940719C801DA
:104520000E945422FF24E7FCF09497FD0BC08E15E7
:104530009F0541F0682FCE010E948319C8010E9497
:104540005422F3CFCE01DF91CF911F910F91FF90B5
:10455000EF900895CF92DF92EF92FF920F931F9307
:10456000CF93DF936C017A01EB01E60EF71E00E0BA
:1045700010E0CE15DF0561F06991D601ED91FC9157
:104580000190F081E02DC6011995080F191FF1CF98
:10459000C801DF91CF911F910F91FF90EF90DF90B5
:1045A000CF9008956115710581F0DB010D90002019
:1045B000E9F7AD0141505109461B570BDC01ED9164
:1045C000FC910280F381E02D199480E090E0089541
:1045D0000C94D222DC01ED91FC910190F081E02D50
:1045E00019940F931F93CF93DF93EC016DE00E941A
:1045F000EA228C016AE0CE010E94EA22800F911F1C
:10460000DF91CF911F910F9108950F931F93CF9337
:10461000DF93EC010E94D2228C01CE010E94F12294
:10462000800F911FDF91CF911F910F9108958F926D
:104630009F92AF92BF92CF92DF92EF92FF920F9331
:104640001F93CF93DF93CDB7DEB7A1970FB6F89442
:10465000DEBF0FBECDBF7C01C42EE52FCB01D22E15
:1046600019A221E02D1510F02AE0D22E8E010F5D47
:104670001F4F8D2C912CA12CB12C6C2D7E2FA501C0
:1046800094010E944F298C2DD29E80191124015033
:1046900011098A3014F4805D01C0895CF8018083BF
:1046A000211531054105510521F0C22EE32FCA0124
:1046B000E4CFB801C7010E94D222A1960FB6F894A8
:1046C000DEBF0FBECDBFDF91CF911F910F91FF9045
:1046D000EF90DF90CF90BF90AF909F908F90089514
:1046E000CF92DF92EF92FF920F931F93CF93DF93BE
:1046F000EC016A017B012115310579F4E881F9812A
:104700000190F081E02D642FDF91CF911F910F91E7
:10471000FF90EF90DF90CF9019942A303105E9F4A3
:1047200077FF1AC06DE20E94EA228C0144275527C8
:10473000BA014C195D096E097F092AE0CE010E9479
:104740001723800F911FDF91CF911F910F91FF9041
:10475000EF90DF90CF9008952AE0B701A601CE0137
:10476000DF91CF911F910F91FF90EF90DF90CF904D
:104770000C9417239A01AB01662757FD6095762F9D
:104780000C9470230F931F93CF93DF93EC019A0146
:10479000AB01662757FD6095762F0E9470238C0130
:1047A000CE010E94F122800F911FDF91CF911F91C6
:1047B0000F9108952115310541F4DC01ED91FC9133
:1047C0000190F081E02D642F19940C9417239A0125
:1047D000462F50E060E070E00C94DA230F931F93B3
:1047E000CF93DF93EC019A01462F50E060E070E038
:1047F0000E94DA238C01CE010E94F122800F911FCA
:10480000DF91CF911F910F9108954F925F926F9218
:104810007F928F929F92AF92BF92CF92DF92EF9250
:10482000FF920F931F93CF93DF93EC016A017B01FB
:10483000B22E9A01AB01C701B6010E942F2988232D
:1048400019F06AED72E027C026013701E89477F885
:104850002FEF3FEF4FE75FE7C301B2010E942F291F
:1048600081110DC02FEF3FEF4FE75FE7C301B201AA
:104870000E94792718161CF46EED72E00CC02FEF21
:104880003FEF4FE75FE4C701B6010E94C828181642
:10489000ACF462EE72E0CE01DF91CF911F910F91E7
:1048A000FF90EF90DF90CF90BF90AF909F908F9050
:1048B0007F906F905F904F900C94D2222FEF3FEF3C
:1048C0004FE75FECC701B6010E94792787FDE1CF72
:1048D00020E030E0A901C701B6010E94792787FFD7
:1048E0000AC06DE2CE010E94EA228C01F7FAF09430
:1048F000F7F8F09402C000E010E0A12C60E070E056
:1049000080E09FE3AB1441F020E030E040E251E46E
:104910000E947D27A394F6CF9B01AC01C701B6018D
:104920000E9415276B017C010E94EA272B013C01A4
:104930000E9416289B01AC01C701B6010E941427F2
:104940006B017C012AE0B301A201CE010E94172372
:10495000080F191FBB2039F067E572E0CE010E94F5
:10496000D222080F191F7B2C772041F120E030E084
:1049700040E251E4C701B6010E94CC286B017C01E2
:104980000E94E5274B01AA2497FCA094BA2C2AE0A8
:1049900030E0B501A401CE010E947023080F191F59
:1049A000C501B4010E9418289B01AC01C701B601E2
:1049B0000E9414276B017C017A94D6CFC801DF9145
:1049C000CF911F910F91FF90EF90DF90CF90BF900C
:1049D000AF909F908F907F906F905F904F900895D1
:1049E0000C9405240F931F93CF93DF93EC010E9447
:1049F00005248C01CE010E94F122800F911FDF91CE
:104A0000CF911F910F910895CF93DF93823091053D
:104A100010F482E090E0E0916E07F0916F0720E0E3
:104A200030E0A0E0B0E0309739F140815181481783
:104A30005907B8F04817590771F48281938110978C
:104A400029F013969C938E9312972CC090936F0726
:104A500080936E0727C02115310531F042175307A7
:104A600018F0A901DB0101C0EF019A01BD01DF01CE
:104A70000280F381E02DD7CF21153105F9F0281BF5
:104A8000390B2430310580F48A819B8161157105D1
:104A900021F0FB019383828304C090936F0780937E
:104AA0006E07FE01329644C0FE01E20FF31F8193B0
:104AB000919322503109398328833AC020916C07A1
:104AC00030916D07232B41F4209138023091390247
:104AD00030936D0720936C07209136023091370296
:104AE0002115310541F42DB73EB740913A0250915E
:104AF0003B02241B350BE0916C07F0916D07E21728
:104B0000F307A0F42E1B3F0B2817390778F0AC01F0
:104B10004E5F5F4F2417350748F04E0F5F1F5093CD
:104B20006D0740936C078193919302C0E0E0F0E041
:104B3000CF01DF91CF910895CF93DF93009709F4D0
:104B400087C0FC01329713821282C0916E07D09108
:104B50006F07209781F420813181280F391F8091C0
:104B60006C0790916D078217930779F5F0936D07A5
:104B7000E0936C076DC0DE0120E030E0AE17BF07A8
:104B800050F412964D915C9113979D01411551057A
:104B900009F1DA01F3CFB383A28340815181840FFD
:104BA000951F8A179B0771F48D919C911197840F23
:104BB000951F02969183808312968D919C911397F5
:104BC000938382832115310529F4F0936F07E093D5
:104BD0006E073EC0D9011396FC93EE9312974D9148
:104BE0005D91A40FB51FEA17FB0779F480819181CD
:104BF000840F951F0296D90111969C938E93828102
:104C0000938113969C938E931297E0E0F0E08A8153
:104C10009B81009719F0FE01EC01F9CFCE010296BD
:104C200028813981820F931F20916C0730916D0785
:104C30002817390769F4309729F410926F071092FA
:104C40006E0702C013821282D0936D07C0936C0767
:104C5000DF91CF9108956F927F928F929F92AF9242
:104C6000BF92CF92DF92EF92FF920F931F93CF9359
:104C7000DF93EC01CB01209781F4DF91CF911F915D
:104C80000F91FF90EF90DF90CF90BF90AF909F90EB
:104C90008F907F906F900C940425FE01E60FF71F14
:104CA0009E0122503109E217F30708F4ACC0D90184
:104CB0000D911C91119706171707B8F005301105D3
:104CC00008F49FC0A801445051094617570708F43B
:104CD00098C002501109061B170B019311936D9395
:104CE0007C93CF010E949C258CC05B01A01AB10A65
:104CF0004E01800E911EA0916E07B0916F07612C3E
:104D0000712C60E070E0109709F449C0A815B9054E
:104D1000C9F5ED90FC901197670142E0C40ED11CDB
:104D2000CA14DB0478F147018A189B08640142E049
:104D3000C40ED11C1296BC9012971396AC91B5E09C
:104D4000CB16D10440F0B282A38391828082D90134
:104D50008D939C9309C00E5F1F4F0E0D1F1DF9010F
:104D600011830083EB2DFA2F6115710531F0DB0102
:104D70001396FC93EE93129744C0F0936F07E09361
:104D80006E073FC06D917C9111976616770608F407
:104D90003B01BD0112960D90BC91A02DB4CF609146
:104DA0006C0770916D0768157905E9F46816790646
:104DB000D0F440913602509137024115510541F42B
:104DC0004DB75EB760913A0270913B02461B570B9C
:104DD000E417F507C0F4F0936D07E0936C07F90151
:104DE000918380830EC00E9404257C01009759F0B6
:104DF000A801BE010E94E729CE010E949C25C7019F
:104E000004C0CE0102C080E090E0DF91CF911F91FD
:104E10000F91FF90EF90DF90CF90BF90AF909F9059
:104E20008F907F906F9008955058BB27AA270ED07F
:104E300075C166D130F06BD120F031F49F3F11F491
:104E40001EF45BC10EF4E095E7FB51C1E92F77D169
:104E500080F3BA17620773078407950718F071F497
:104E60009EF58FC10EF4E0950B2EBA2FA02D0B01ED
:104E7000B90190010C01CA01A0011124FF27591B9F
:104E800099F0593F50F4503E68F11A16F040A22FA5
:104E9000232F342F4427585FF3CF46953795279516
:104EA000A795F0405395C9F77EF41F16BA0B620B15
:104EB000730B840BBAF09150A1F0FF0FBB1F661F5C
:104EC000771F881FC2F70EC0BA0F621F731F841F9F
:104ED00048F4879577956795B795F7959E3F08F0C5
:104EE000B3CF9395880F08F09927EE0F9795879584
:104EF0000895D9D008F481E008950CD00FC107D1EE
:104F000040F0FED030F021F45F3F19F0F0C05111B5
:104F100039C1F3C014D198F39923C9F35523B1F3E0
:104F2000951B550BBB27AA2762177307840738F018
:104F30009F5F5F4F220F331F441FAA1FA9F333D077
:104F40000E2E3AF0E0E830D091505040E695001C2B
:104F5000CAF729D0FE2F27D0660F771F881FBB1FE7
:104F6000261737074807AB07B0E809F0BB0B802DC1
:104F7000BF01FF2793585F4F2AF09E3F510568F00D
:104F8000B6C000C15F3FECF3983EDCF386957795A1
:104F90006795B795F7959F5FC9F7880F911D96950F
:104FA000879597F90895E1E0660F771F881FBB1F6B
:104FB000621773078407BA0720F0621B730B840B18
:104FC000BA0BEE1F88F7E095089504D06894B111EC
:104FD000D9C00895BCD088F09F5790F0B92F992779
:104FE000B751A0F0D1F0660F771F881F991F1AF0F4
:104FF000BA95C9F712C0B13081F0C3D0B1E00895BD
:10500000C0C0672F782F8827B85F39F0B93FCCF33D
:10501000869577956795B395D9F73EF490958095E9
:10502000709561957F4F8F4F9F4F0895E89409C009
:1050300097FB3EF490958095709561957F4F8F4FCB
:105040009F4F9923A9F0F92F96E9BB279395F695E1
:10505000879577956795B795F111F8CFFAF4BB0F5F
:1050600011F460FF1BC06F5F7F4F8F4F9F4F16C0C3
:10507000882311F096E911C0772321F09EE8872F4D
:10508000762F05C0662371F096E8862F70E060E009
:105090002AF09A95660F771F881FDAF7880F969582
:1050A000879597F90895990F0008550FAA0BE0E826
:1050B000FEEF16161706E807F907C0F012161306DA
:1050C000E407F50798F0621B730B840B950B39F41A
:1050D0000A2661F0232B242B252B21F408950A2680
:1050E00009F4A140A6958FEF811D811D089597F9C0
:1050F0009F6780E870E060E008959FEF80EC08957E
:1051000000240A94161617061806090608950024A6
:105110000A9412161306140605060895092E039420
:10512000000C11F4882352F0BB0F40F4BF2B11F494
:1051300060FF04C06F5F7F4F8F4F9F4F089557FDF3
:105140009058440F551F59F05F3F71F04795880FF5
:1051500097FB991F61F09F3F79F08795089512168C
:1051600013061406551FF2CF4695F1DF08C0161638
:1051700017061806991FF1CF8695710561050894E9
:105180000895E894BB2766277727CB0197F9089500
:105190008ADF08F48FEF08950BD0C0CFB1DF28F07D
:1051A000B6DF18F0952309F0A2CFA7CF1124EACFDC
:1051B000C6DFA0F3959FD1F3950F50E0551F629F76
:1051C000F001729FBB27F00DB11D639FAA27F00D60
:1051D000B11DAA1F649F6627B00DA11D661F829F87
:1051E0002227B00DA11D621F739FB00DA11D621F6C
:1051F000839FA00D611D221F749F3327A00D611D89
:10520000231F849F600D211D822F762F6A2F11246A
:105210009F5750408AF0E1F088234AF0EE0FFF1FBD
:10522000BB1F661F771F881F91505040A9F79E3FF4
:10523000510570F05CCFA6CF5F3FECF3983EDCF3F6
:10524000869577956795B795F795E7959F5FC1F731
:10525000FE2B880F911D9695879597F9089523DF6A
:10526000880B990B0895DB018F939F930E949629D9
:10527000BF91AF91A29F800D911DA39F900DB29FF2
:10528000900D11240895991B79E004C0991F961779
:1052900008F0961B881F7A95C9F780950895A1E2BA
:1052A0001A2EAA1BBB1BFD010DC0AA1FBB1FEE1FA0
:1052B000FF1FA217B307E407F50720F0A21BB30BEB
:1052C000E40BF50B661F771F881F991F1A9469F767
:1052D00060957095809590959B01AC01BD01CF01C3
:1052E0000895052E97FB1EF400940E94882957FD0F
:1052F00007D00E944F2907FC03D04EF40C94882954
:1053000050954095309521953F4F4F4F5F4F0895F1
:1053100090958095709561957F4F8F4F9F4F089521
:10532000EE0FFF1F0590F491E02D19940E94A5291E
:10533000A59F900DB49F900DA49F800D911D1124E9
:1053400008950790F691E02D1994A29FB001B39FA4
:10535000C001A39F700D811D1124911DB29F700D7E
:10536000811D1124911D0895662777270C942F2AFB
:105370001F93FC0199278827BC01E89411911032F2
:10538000E9F3193010F01E30C8F31B3251F01D3212
:1053900049F4689406C00E941A2A610F711D811D8C
:1053A000911D119110531A30B0F33EF490958095F1
:1053B000709561957F4F8F4F9F4F1F910895911169
:1053C000BFC1803219F089508550D0F70895FB0194
:1053D000DC0102C001900D9241505040D8F7089571
:1053E000FC018191861721F08823D9F79927089528
:1053F0003197CF010895FB01DC018D910190801957
:105400000110D9F3990B0895FB01DC0101900D9275
:105410000020E1F70895FB01DC014150504048F0C5
:1054200001900D920020C9F701C01D9241505040DB
:10543000E0F70895592F482F372F262F660F771F33
:10544000881F991F660F771F881F991F620F731F90
:10545000841F951F660F771F881F991F08958F92CD
:105460009F92AF92BF92CF92DF92EF92FF920F93F3
:105470001F93CF93DF938B016115710521F0DB0141
:105480008C9311969C93EC015E01BFEFAB1ABB0AA3
:105490007501C8808C2D90E00E94DF29892B11F0C6
:1054A000E501F2CFEDE2CE1208C07E01F2E0EF0E90
:1054B000F11CC980DD24D39409C02BE2C21205C0BF
:1054C0007E0142E0E40EF11CC980D12CE701219756
:1054D00043E050E063E073E0CE010E94A32B892BF0
:1054E000C1F4239645E050E06EEF72E0CE010E94D9
:1054F000A32B892B09F425960115110519F0D80164
:10550000CD93DC93D11006C160E070E080E89FE7A6
:105510000AC143E050E06BEF72E0CE010E94A32B82
:10552000892B59F40115110509F4F9C0B2E0EB0E0D
:10553000F11CF801F182E082F2C0F70160E070E056
:10554000CB01C0E0D0E07F01A0EDAA2EAC0C29E099
:105550002A1530F14D2D4260B42E2D2D2870D2FE2B
:1055600004C0211125C0219623C021112197A5E057
:10557000B0E09B01AC010E949629660F771F881F3F
:10558000991F6A0D711D811D911D6839A9E97A075E
:105590008A07A9E19A0760F0BD2DB660BB2E08C04E
:1055A0002EEFA2120AC0D3FC50C04D2D4860B42E7D
:1055B0003196D701CC90DB2CC6CF2C2D2F7D2534F6
:1055C00009F043C0A081AD3241F4BD2DB061DB2EA6
:1055D0007F0122E0E20EF11C0CC07F01AB3231F002
:1055E0004FEFE41AF40A21E030E006C0A2E0EA0E30
:1055F000F11CA18122E030E0A053AA3018F0E21A99
:10560000F30A23C0F70120E030E02038BCE03B077C
:105610005CF4A901440F551F440F551F240F351F7B
:10562000220F331F2A0F311DAF014F5F5F4F7A01E9
:10563000A081A053AA3010F4FA01E7CFD4FE03C032
:10564000319521953109C20FD31FD1FE09C0011533
:10565000110531F0E1E0EE1AF108D801ED92FC926B
:105660000E9416282D2D2370233019F04B015C0168
:1056700006C04B015C01B7FAB094B7F8B09420E0D3
:1056800030E0A901C501B4010E947927882309F4FB
:105690003EC0D7FF06C0D195C195D1090AE113E0FC
:1056A00002C002E313E06801B8E1CB1AD10890E22E
:1056B000E92EF12CCE15DF0574F0F8012591359116
:1056C00045915491C501B4010E94CC284B015C0165
:1056D000CE19DF09EFCF04501109F594E7940C15AA
:1056E0001D0541F78A2D880F8B2D881F8F3F49F0AC
:1056F00020E030E0A901C501B4010E9479278111A1
:1057000006C082E290E09093710780937007C50114
:10571000B40109C060E070E080E89FEF04C060E081
:1057200070E080EC9FE7DF91CF911F910F91FF9088
:10573000EF90DF90CF90BF90AF909F908F900895A3
:10574000992788270895FB01DC014150504088F0DB
:105750008D9181341CF08B350CF4805E6591613441
:105760001CF06B350CF4605E861B611171F3990BB4
:0A5770000895881BFCCFF894FFCFCA
:10577A00010000007800B400C8002602C2010040FF
:10578A00064400C00D4400000041000050412300BF
:10579A0014001400FA00B80B5F011405BC0265007E
:1057AA004700530301FF000072078000456E642022
:1057BA004D6F746F72732053657475700046697209
:1057CA006D776172653A002E00436F6E74726F6C6A
:1057DA005F526174653A00456E636F646572315F4A
:1057EA006D61783A00456E636F646572325F6D6110
:1057FA00783A00456E636F646572335F6D61783A1B
:10580A0000456E64205350492053657475700053E7
:10581A006574757020436F6D706C657465642100E2
:10582A002C00720030003100320000000000F71234
:10583A00CA12701278128B129A1200000000C91A4A
:10584A00AA22751A9E1A851ABE1A6E616E00696EB0
:06585A0066006F76660097
:00000001FF
